{
  "contractName": "NFTplanet",
  "abi": [
    {
      "inputs": [],
      "stateMutability": "nonpayable",
      "type": "constructor"
    },
    {
      "anonymous": false,
      "inputs": [
        {
          "indexed": true,
          "internalType": "address",
          "name": "owner",
          "type": "address"
        },
        {
          "indexed": true,
          "internalType": "address",
          "name": "approved",
          "type": "address"
        },
        {
          "indexed": true,
          "internalType": "uint256",
          "name": "tokenId",
          "type": "uint256"
        }
      ],
      "name": "Approval",
      "type": "event"
    },
    {
      "anonymous": false,
      "inputs": [
        {
          "indexed": true,
          "internalType": "address",
          "name": "owner",
          "type": "address"
        },
        {
          "indexed": true,
          "internalType": "address",
          "name": "operator",
          "type": "address"
        },
        {
          "indexed": false,
          "internalType": "bool",
          "name": "approved",
          "type": "bool"
        }
      ],
      "name": "ApprovalForAll",
      "type": "event"
    },
    {
      "anonymous": false,
      "inputs": [
        {
          "indexed": false,
          "internalType": "uint256",
          "name": "id",
          "type": "uint256"
        }
      ],
      "name": "NewPlanet",
      "type": "event"
    },
    {
      "anonymous": false,
      "inputs": [
        {
          "indexed": true,
          "internalType": "address",
          "name": "from",
          "type": "address"
        },
        {
          "indexed": true,
          "internalType": "address",
          "name": "to",
          "type": "address"
        },
        {
          "indexed": true,
          "internalType": "uint256",
          "name": "tokenId",
          "type": "uint256"
        }
      ],
      "name": "Transfer",
      "type": "event"
    },
    {
      "inputs": [],
      "name": "POH_ADDRESS",
      "outputs": [
        {
          "internalType": "address",
          "name": "",
          "type": "address"
        }
      ],
      "stateMutability": "view",
      "type": "function",
      "constant": true
    },
    {
      "inputs": [
        {
          "internalType": "uint256",
          "name": "",
          "type": "uint256"
        }
      ],
      "name": "allPlanets",
      "outputs": [
        {
          "internalType": "string",
          "name": "name",
          "type": "string"
        },
        {
          "internalType": "uint256",
          "name": "PlanetId",
          "type": "uint256"
        },
        {
          "internalType": "address",
          "name": "owner",
          "type": "address"
        },
        {
          "internalType": "uint256",
          "name": "slots",
          "type": "uint256"
        },
        {
          "internalType": "uint256",
          "name": "nftCounter",
          "type": "uint256"
        }
      ],
      "stateMutability": "view",
      "type": "function",
      "constant": true
    },
    {
      "inputs": [
        {
          "internalType": "address",
          "name": "to",
          "type": "address"
        },
        {
          "internalType": "uint256",
          "name": "tokenId",
          "type": "uint256"
        }
      ],
      "name": "approve",
      "outputs": [],
      "stateMutability": "nonpayable",
      "type": "function"
    },
    {
      "inputs": [
        {
          "internalType": "address",
          "name": "owner",
          "type": "address"
        }
      ],
      "name": "balanceOf",
      "outputs": [
        {
          "internalType": "uint256",
          "name": "",
          "type": "uint256"
        }
      ],
      "stateMutability": "view",
      "type": "function",
      "constant": true
    },
    {
      "inputs": [
        {
          "internalType": "uint256",
          "name": "tokenId",
          "type": "uint256"
        }
      ],
      "name": "getApproved",
      "outputs": [
        {
          "internalType": "address",
          "name": "",
          "type": "address"
        }
      ],
      "stateMutability": "view",
      "type": "function",
      "constant": true
    },
    {
      "inputs": [
        {
          "internalType": "address",
          "name": "owner",
          "type": "address"
        },
        {
          "internalType": "address",
          "name": "operator",
          "type": "address"
        }
      ],
      "name": "isApprovedForAll",
      "outputs": [
        {
          "internalType": "bool",
          "name": "",
          "type": "bool"
        }
      ],
      "stateMutability": "view",
      "type": "function",
      "constant": true
    },
    {
      "inputs": [],
      "name": "name",
      "outputs": [
        {
          "internalType": "string",
          "name": "",
          "type": "string"
        }
      ],
      "stateMutability": "view",
      "type": "function",
      "constant": true
    },
    {
      "inputs": [
        {
          "internalType": "uint256",
          "name": "tokenId",
          "type": "uint256"
        }
      ],
      "name": "ownerOf",
      "outputs": [
        {
          "internalType": "address",
          "name": "",
          "type": "address"
        }
      ],
      "stateMutability": "view",
      "type": "function",
      "constant": true
    },
    {
      "inputs": [
        {
          "internalType": "address",
          "name": "from",
          "type": "address"
        },
        {
          "internalType": "address",
          "name": "to",
          "type": "address"
        },
        {
          "internalType": "uint256",
          "name": "tokenId",
          "type": "uint256"
        }
      ],
      "name": "safeTransferFrom",
      "outputs": [],
      "stateMutability": "nonpayable",
      "type": "function"
    },
    {
      "inputs": [
        {
          "internalType": "address",
          "name": "from",
          "type": "address"
        },
        {
          "internalType": "address",
          "name": "to",
          "type": "address"
        },
        {
          "internalType": "uint256",
          "name": "tokenId",
          "type": "uint256"
        },
        {
          "internalType": "bytes",
          "name": "_data",
          "type": "bytes"
        }
      ],
      "name": "safeTransferFrom",
      "outputs": [],
      "stateMutability": "nonpayable",
      "type": "function"
    },
    {
      "inputs": [
        {
          "internalType": "address",
          "name": "operator",
          "type": "address"
        },
        {
          "internalType": "bool",
          "name": "approved",
          "type": "bool"
        }
      ],
      "name": "setApprovalForAll",
      "outputs": [],
      "stateMutability": "nonpayable",
      "type": "function"
    },
    {
      "inputs": [
        {
          "internalType": "bytes4",
          "name": "interfaceId",
          "type": "bytes4"
        }
      ],
      "name": "supportsInterface",
      "outputs": [
        {
          "internalType": "bool",
          "name": "",
          "type": "bool"
        }
      ],
      "stateMutability": "view",
      "type": "function",
      "constant": true
    },
    {
      "inputs": [],
      "name": "symbol",
      "outputs": [
        {
          "internalType": "string",
          "name": "",
          "type": "string"
        }
      ],
      "stateMutability": "view",
      "type": "function",
      "constant": true
    },
    {
      "inputs": [
        {
          "internalType": "uint256",
          "name": "tokenId",
          "type": "uint256"
        }
      ],
      "name": "tokenURI",
      "outputs": [
        {
          "internalType": "string",
          "name": "",
          "type": "string"
        }
      ],
      "stateMutability": "view",
      "type": "function",
      "constant": true
    },
    {
      "inputs": [],
      "name": "totalPlanets",
      "outputs": [
        {
          "internalType": "uint256",
          "name": "_value",
          "type": "uint256"
        }
      ],
      "stateMutability": "view",
      "type": "function",
      "constant": true
    },
    {
      "inputs": [
        {
          "internalType": "address",
          "name": "from",
          "type": "address"
        },
        {
          "internalType": "address",
          "name": "to",
          "type": "address"
        },
        {
          "internalType": "uint256",
          "name": "tokenId",
          "type": "uint256"
        }
      ],
      "name": "transferFrom",
      "outputs": [],
      "stateMutability": "nonpayable",
      "type": "function"
    },
    {
      "inputs": [
        {
          "internalType": "string",
          "name": "tokenURI",
          "type": "string"
        },
        {
          "internalType": "string",
          "name": "name",
          "type": "string"
        }
      ],
      "name": "mintPlanet",
      "outputs": [],
      "stateMutability": "payable",
      "type": "function",
      "payable": true
    }
  ],
  "bytecode": "0x60806040523480156200001157600080fd5b506040518060400160405280600981526020017f506c616e65744e465400000000000000000000000000000000000000000000008152506040518060400160405280600481526020017f504e4654000000000000000000000000000000000000000000000000000000008152508160009080519060200190620000969291906200010d565b508060019080519060200190620000af9291906200010d565b50505073c5e9ddebb09cd64dfacab4011a0d5cedaf7c9bdb600b60006101000a81548173ffffffffffffffffffffffffffffffffffffffff021916908373ffffffffffffffffffffffffffffffffffffffff16021790555062000222565b8280546200011b90620001bd565b90600052602060002090601f0160209004810192826200013f57600085556200018b565b82601f106200015a57805160ff19168380011785556200018b565b828001600101855582156200018b579182015b828111156200018a5782518255916020019190600101906200016d565b5b5090506200019a91906200019e565b5090565b5b80821115620001b95760008160009055506001016200019f565b5090565b60006002820490506001821680620001d657607f821691505b60208210811415620001ed57620001ec620001f3565b5b50919050565b7f4e487b7100000000000000000000000000000000000000000000000000000000600052602260045260246000fd5b61317780620002326000396000f3fe6080604052600436106100fe5760003560e01c80636c05848311610095578063b5a3d0ce11610064578063b5a3d0ce1461034e578063b88d4fde14610379578063c87b56dd146103a2578063ca81f45d146103df578063e985e9c51461040a576100fe565b80636c058483146102a157806370a08231146102bd57806395d89b41146102fa578063a22cb46514610325576100fe565b80630c57e2d9116100d15780630c57e2d9146101d157806323b872dd1461021257806342842e0e1461023b5780636352211e14610264576100fe565b806301ffc9a71461010357806306fdde0314610140578063081812fc1461016b578063095ea7b3146101a8575b600080fd5b34801561010f57600080fd5b5061012a60048036038101906101259190612245565b610447565b6040516101379190612a75565b60405180910390f35b34801561014c57600080fd5b50610155610529565b6040516101629190612a90565b60405180910390f35b34801561017757600080fd5b50610192600480360381019061018d9190612303565b6105bb565b60405161019f9190612a0e565b60405180910390f35b3480156101b457600080fd5b506101cf60048036038101906101ca91906121e0565b610640565b005b3480156101dd57600080fd5b506101f860048036038101906101f39190612303565b610758565b604051610209959493929190612ab2565b60405180910390f35b34801561021e57600080fd5b50610239600480360381019061023491906120da565b610836565b005b34801561024757600080fd5b50610262600480360381019061025d91906120da565b610896565b005b34801561027057600080fd5b5061028b60048036038101906102869190612303565b6108b6565b6040516102989190612a0e565b60405180910390f35b6102bb60048036038101906102b69190612297565b610968565b005b3480156102c957600080fd5b506102e460048036038101906102df9190612075565b610da0565b6040516102f19190612d0c565b60405180910390f35b34801561030657600080fd5b5061030f610e58565b60405161031c9190612a90565b60405180910390f35b34801561033157600080fd5b5061034c600480360381019061034791906121a4565b610eea565b005b34801561035a57600080fd5b5061036361106b565b6040516103709190612a0e565b60405180910390f35b34801561038557600080fd5b506103a0600480360381019061039b9190612129565b611083565b005b3480156103ae57600080fd5b506103c960048036038101906103c49190612303565b6110e5565b6040516103d69190612a90565b60405180910390f35b3480156103eb57600080fd5b506103f4611237565b6040516104019190612d0c565b60405180910390f35b34801561041657600080fd5b50610431600480360381019061042c919061209e565b611243565b60405161043e9190612a75565b60405180910390f35b60007f80ac58cd000000000000000000000000000000000000000000000000000000007bffffffffffffffffffffffffffffffffffffffffffffffffffffffff1916827bffffffffffffffffffffffffffffffffffffffffffffffffffffffff1916148061051257507f5b5e139f000000000000000000000000000000000000000000000000000000007bffffffffffffffffffffffffffffffffffffffffffffffffffffffff1916827bffffffffffffffffffffffffffffffffffffffffffffffffffffffff1916145b806105225750610521826112d7565b5b9050919050565b60606000805461053890612f6c565b80601f016020809104026020016040519081016040528092919081815260200182805461056490612f6c565b80156105b15780601f10610586576101008083540402835291602001916105b1565b820191906000526020600020905b81548152906001019060200180831161059457829003601f168201915b5050505050905090565b60006105c682611341565b610605576040517f08c379a00000000000000000000000000000000000000000000000000000000081526004016105fc90612c6c565b60405180910390fd5b6004600083815260200190815260200160002060009054906101000a900473ffffffffffffffffffffffffffffffffffffffff169050919050565b600061064b826108b6565b90508073ffffffffffffffffffffffffffffffffffffffff168373ffffffffffffffffffffffffffffffffffffffff1614156106bc576040517f08c379a00000000000000000000000000000000000000000000000000000000081526004016106b390612ccc565b60405180910390fd5b8073ffffffffffffffffffffffffffffffffffffffff166106db6113ad565b73ffffffffffffffffffffffffffffffffffffffff16148061070a5750610709816107046113ad565b611243565b5b610749576040517f08c379a000000000000000000000000000000000000000000000000000000000815260040161074090612bac565b60405180910390fd5b61075383836113b5565b505050565b600960205280600052604060002060009150905080600001805461077b90612f6c565b80601f01602080910402602001604051908101604052809291908181526020018280546107a790612f6c565b80156107f45780601f106107c9576101008083540402835291602001916107f4565b820191906000526020600020905b8154815290600101906020018083116107d757829003601f168201915b5050505050908060010154908060020160009054906101000a900473ffffffffffffffffffffffffffffffffffffffff16908060030154908060040154905085565b6108476108416113ad565b8261146e565b610886576040517f08c379a000000000000000000000000000000000000000000000000000000000815260040161087d90612cec565b60405180910390fd5b61089183838361154c565b505050565b6108b183838360405180602001604052806000815250611083565b505050565b6000806002600084815260200190815260200160002060009054906101000a900473ffffffffffffffffffffffffffffffffffffffff169050600073ffffffffffffffffffffffffffffffffffffffff168173ffffffffffffffffffffffffffffffffffffffff16141561095f576040517f08c379a000000000000000000000000000000000000000000000000000000000815260040161095690612bec565b60405180910390fd5b80915050919050565b600b60009054906101000a900473ffffffffffffffffffffffffffffffffffffffff1673ffffffffffffffffffffffffffffffffffffffff1663c3c5a547336040518263ffffffff1660e01b81526004016109c39190612a0e565b60206040518083038186803b1580156109db57600080fd5b505afa1580156109ef573d6000803e3d6000fd5b505050506040513d601f19601f82011682018060405250810190610a13919061221c565b8015610a695750600a60003373ffffffffffffffffffffffffffffffffffffffff1673ffffffffffffffffffffffffffffffffffffffff16815260200190815260200160002060009054906101000a900460ff16155b15610c2c576001600a60003373ffffffffffffffffffffffffffffffffffffffff1673ffffffffffffffffffffffffffffffffffffffff16815260200190815260200160002060006101000a81548160ff0219169083151502179055506000610ad260076117a8565b9050610ade60076117b6565b610ae833826117cc565b6000600860003373ffffffffffffffffffffffffffffffffffffffff1673ffffffffffffffffffffffffffffffffffffffff168152602001908152602001600020905080829080600181540180825580915050600190039060005260206000200160009091909190915055610b5d828561199a565b7f8a8b1d5f1defbbe51c053d2ff7e04ee478d5ad46d9ab99bf79c3144ac3a2cfa682604051610b8c9190612d0c565b60405180910390a1600060096000848152602001908152602001600020905083816000019080519060200190610bc3929190611e84565b50828160010181905550338160020160006101000a81548173ffffffffffffffffffffffffffffffffffffffff021916908373ffffffffffffffffffffffffffffffffffffffff1602179055506005816003018190555060008160040181905550505050610d9c565b655af3107a40003410610d9b576000610c4560076117a8565b9050610c5160076117b6565b610c5b33826117cc565b6000600860003373ffffffffffffffffffffffffffffffffffffffff1673ffffffffffffffffffffffffffffffffffffffff168152602001908152602001600020905080829080600181540180825580915050600190039060005260206000200160009091909190915055610cd0828561199a565b7f8a8b1d5f1defbbe51c053d2ff7e04ee478d5ad46d9ab99bf79c3144ac3a2cfa682604051610cff9190612d0c565b60405180910390a1600060096000848152602001908152602001600020905083816000019080519060200190610d36929190611e84565b50828160010181905550338160020160006101000a81548173ffffffffffffffffffffffffffffffffffffffff021916908373ffffffffffffffffffffffffffffffffffffffff16021790555060058160030181905550600081600401819055505050505b5b5050565b60008073ffffffffffffffffffffffffffffffffffffffff168273ffffffffffffffffffffffffffffffffffffffff161415610e11576040517f08c379a0000000000000000000000000000000000000000000000000000000008152600401610e0890612bcc565b60405180910390fd5b600360008373ffffffffffffffffffffffffffffffffffffffff1673ffffffffffffffffffffffffffffffffffffffff168152602001908152602001600020549050919050565b606060018054610e6790612f6c565b80601f0160208091040260200160405190810160405280929190818152602001828054610e9390612f6c565b8015610ee05780601f10610eb557610100808354040283529160200191610ee0565b820191906000526020600020905b815481529060010190602001808311610ec357829003601f168201915b5050505050905090565b610ef26113ad565b73ffffffffffffffffffffffffffffffffffffffff168273ffffffffffffffffffffffffffffffffffffffff161415610f60576040517f08c379a0000000000000000000000000000000000000000000000000000000008152600401610f5790612b6c565b60405180910390fd5b8060056000610f6d6113ad565b73ffffffffffffffffffffffffffffffffffffffff1673ffffffffffffffffffffffffffffffffffffffff16815260200190815260200160002060008473ffffffffffffffffffffffffffffffffffffffff1673ffffffffffffffffffffffffffffffffffffffff16815260200190815260200160002060006101000a81548160ff0219169083151502179055508173ffffffffffffffffffffffffffffffffffffffff1661101a6113ad565b73ffffffffffffffffffffffffffffffffffffffff167f17307eab39ab6107e8899845ad3d59bd9653f200f220920489ca2b5937696c318360405161105f9190612a75565b60405180910390a35050565b73c5e9ddebb09cd64dfacab4011a0d5cedaf7c9bdb81565b61109461108e6113ad565b8361146e565b6110d3576040517f08c379a00000000000000000000000000000000000000000000000000000000081526004016110ca90612cec565b60405180910390fd5b6110df84848484611a0e565b50505050565b60606110f082611341565b61112f576040517f08c379a000000000000000000000000000000000000000000000000000000000815260040161112690612c4c565b60405180910390fd5b600060066000848152602001908152602001600020805461114f90612f6c565b80601f016020809104026020016040519081016040528092919081815260200182805461117b90612f6c565b80156111c85780601f1061119d576101008083540402835291602001916111c8565b820191906000526020600020905b8154815290600101906020018083116111ab57829003601f168201915b5050505050905060006111d9611a6a565b90506000815114156111ef578192505050611232565b60008251111561122457808260405160200161120c9291906129ea565b60405160208183030381529060405292505050611232565b61122d84611a81565b925050505b919050565b60078060000154905081565b6000600560008473ffffffffffffffffffffffffffffffffffffffff1673ffffffffffffffffffffffffffffffffffffffff16815260200190815260200160002060008373ffffffffffffffffffffffffffffffffffffffff1673ffffffffffffffffffffffffffffffffffffffff16815260200190815260200160002060009054906101000a900460ff16905092915050565b60007f01ffc9a7000000000000000000000000000000000000000000000000000000007bffffffffffffffffffffffffffffffffffffffffffffffffffffffff1916827bffffffffffffffffffffffffffffffffffffffffffffffffffffffff1916149050919050565b60008073ffffffffffffffffffffffffffffffffffffffff166002600084815260200190815260200160002060009054906101000a900473ffffffffffffffffffffffffffffffffffffffff1673ffffffffffffffffffffffffffffffffffffffff1614159050919050565b600033905090565b816004600083815260200190815260200160002060006101000a81548173ffffffffffffffffffffffffffffffffffffffff021916908373ffffffffffffffffffffffffffffffffffffffff160217905550808273ffffffffffffffffffffffffffffffffffffffff16611428836108b6565b73ffffffffffffffffffffffffffffffffffffffff167f8c5be1e5ebec7d5bd14f71427d1e84f3dd0314c0f7b2291e5b200ac8c7c3b92560405160405180910390a45050565b600061147982611341565b6114b8576040517f08c379a00000000000000000000000000000000000000000000000000000000081526004016114af90612b8c565b60405180910390fd5b60006114c3836108b6565b90508073ffffffffffffffffffffffffffffffffffffffff168473ffffffffffffffffffffffffffffffffffffffff16148061153257508373ffffffffffffffffffffffffffffffffffffffff1661151a846105bb565b73ffffffffffffffffffffffffffffffffffffffff16145b8061154357506115428185611243565b5b91505092915050565b8273ffffffffffffffffffffffffffffffffffffffff1661156c826108b6565b73ffffffffffffffffffffffffffffffffffffffff16146115c2576040517f08c379a00000000000000000000000000000000000000000000000000000000081526004016115b990612c8c565b60405180910390fd5b600073ffffffffffffffffffffffffffffffffffffffff168273ffffffffffffffffffffffffffffffffffffffff161415611632576040517f08c379a000000000000000000000000000000000000000000000000000000000815260040161162990612b4c565b60405180910390fd5b61163d838383611b28565b6116486000826113b5565b6001600360008573ffffffffffffffffffffffffffffffffffffffff1673ffffffffffffffffffffffffffffffffffffffff16815260200190815260200160002060008282546116989190612e82565b925050819055506001600360008473ffffffffffffffffffffffffffffffffffffffff1673ffffffffffffffffffffffffffffffffffffffff16815260200190815260200160002060008282546116ef9190612dfb565b92505081905550816002600083815260200190815260200160002060006101000a81548173ffffffffffffffffffffffffffffffffffffffff021916908373ffffffffffffffffffffffffffffffffffffffff160217905550808273ffffffffffffffffffffffffffffffffffffffff168473ffffffffffffffffffffffffffffffffffffffff167fddf252ad1be2c89b69c2b068fc378daa952ba7f163c4a11628f55a4df523b3ef60405160405180910390a4505050565b600081600001549050919050565b6001816000016000828254019250508190555050565b600073ffffffffffffffffffffffffffffffffffffffff168273ffffffffffffffffffffffffffffffffffffffff16141561183c576040517f08c379a000000000000000000000000000000000000000000000000000000000815260040161183390612c2c565b60405180910390fd5b61184581611341565b15611885576040517f08c379a000000000000000000000000000000000000000000000000000000000815260040161187c90612b2c565b60405180910390fd5b61189160008383611b28565b6001600360008473ffffffffffffffffffffffffffffffffffffffff1673ffffffffffffffffffffffffffffffffffffffff16815260200190815260200160002060008282546118e19190612dfb565b92505081905550816002600083815260200190815260200160002060006101000a81548173ffffffffffffffffffffffffffffffffffffffff021916908373ffffffffffffffffffffffffffffffffffffffff160217905550808273ffffffffffffffffffffffffffffffffffffffff16600073ffffffffffffffffffffffffffffffffffffffff167fddf252ad1be2c89b69c2b068fc378daa952ba7f163c4a11628f55a4df523b3ef60405160405180910390a45050565b6119a382611341565b6119e2576040517f08c379a00000000000000000000000000000000000000000000000000000000081526004016119d990612c0c565b60405180910390fd5b80600660008481526020019081526020016000209080519060200190611a09929190611e84565b505050565b611a1984848461154c565b611a2584848484611b2d565b611a64576040517f08c379a0000000000000000000000000000000000000000000000000000000008152600401611a5b90612b0c565b60405180910390fd5b50505050565b606060405180602001604052806000815250905090565b6060611a8c82611341565b611acb576040517f08c379a0000000000000000000000000000000000000000000000000000000008152600401611ac290612cac565b60405180910390fd5b6000611ad5611a6a565b90506000815111611af55760405180602001604052806000815250611b20565b80611aff84611cc4565b604051602001611b109291906129ea565b6040516020818303038152906040525b915050919050565b505050565b6000611b4e8473ffffffffffffffffffffffffffffffffffffffff16611e71565b15611cb7578373ffffffffffffffffffffffffffffffffffffffff1663150b7a02611b776113ad565b8786866040518563ffffffff1660e01b8152600401611b999493929190612a29565b602060405180830381600087803b158015611bb357600080fd5b505af1925050508015611be457506040513d601f19601f82011682018060405250810190611be1919061226e565b60015b611c67573d8060008114611c14576040519150601f19603f3d011682016040523d82523d6000602084013e611c19565b606091505b50600081511415611c5f576040517f08c379a0000000000000000000000000000000000000000000000000000000008152600401611c5690612b0c565b60405180910390fd5b805181602001fd5b63150b7a0260e01b7bffffffffffffffffffffffffffffffffffffffffffffffffffffffff1916817bffffffffffffffffffffffffffffffffffffffffffffffffffffffff191614915050611cbc565b600190505b949350505050565b60606000821415611d0c576040518060400160405280600181526020017f30000000000000000000000000000000000000000000000000000000000000008152509050611e6c565b600082905060005b60008214611d3e578080611d2790612f9e565b915050600a82611d379190612e51565b9150611d14565b60008167ffffffffffffffff811115611d80577f4e487b7100000000000000000000000000000000000000000000000000000000600052604160045260246000fd5b6040519080825280601f01601f191660200182016040528015611db25781602001600182028036833780820191505090505b5090505b60008514611e6557600182611dcb9190612e82565b9150600a85611dda9190612fe7565b6030611de69190612dfb565b60f81b818381518110611e22577f4e487b7100000000000000000000000000000000000000000000000000000000600052603260045260246000fd5b60200101907effffffffffffffffffffffffffffffffffffffffffffffffffffffffffffff1916908160001a905350600a85611e5e9190612e51565b9450611db6565b8093505050505b919050565b600080823b905060008111915050919050565b828054611e9090612f6c565b90600052602060002090601f016020900481019282611eb25760008555611ef9565b82601f10611ecb57805160ff1916838001178555611ef9565b82800160010185558215611ef9579182015b82811115611ef8578251825591602001919060010190611edd565b5b509050611f069190611f0a565b5090565b5b80821115611f23576000816000905550600101611f0b565b5090565b6000611f3a611f3584612d58565b612d27565b905082815260208101848484011115611f5257600080fd5b611f5d848285612f2a565b509392505050565b6000611f78611f7384612d88565b612d27565b905082815260208101848484011115611f9057600080fd5b611f9b848285612f2a565b509392505050565b600081359050611fb2816130e5565b92915050565b600081359050611fc7816130fc565b92915050565b600081519050611fdc816130fc565b92915050565b600081359050611ff181613113565b92915050565b60008151905061200681613113565b92915050565b600082601f83011261201d57600080fd5b813561202d848260208601611f27565b91505092915050565b600082601f83011261204757600080fd5b8135612057848260208601611f65565b91505092915050565b60008135905061206f8161312a565b92915050565b60006020828403121561208757600080fd5b600061209584828501611fa3565b91505092915050565b600080604083850312156120b157600080fd5b60006120bf85828601611fa3565b92505060206120d085828601611fa3565b9150509250929050565b6000806000606084860312156120ef57600080fd5b60006120fd86828701611fa3565b935050602061210e86828701611fa3565b925050604061211f86828701612060565b9150509250925092565b6000806000806080858703121561213f57600080fd5b600061214d87828801611fa3565b945050602061215e87828801611fa3565b935050604061216f87828801612060565b925050606085013567ffffffffffffffff81111561218c57600080fd5b6121988782880161200c565b91505092959194509250565b600080604083850312156121b757600080fd5b60006121c585828601611fa3565b92505060206121d685828601611fb8565b9150509250929050565b600080604083850312156121f357600080fd5b600061220185828601611fa3565b925050602061221285828601612060565b9150509250929050565b60006020828403121561222e57600080fd5b600061223c84828501611fcd565b91505092915050565b60006020828403121561225757600080fd5b600061226584828501611fe2565b91505092915050565b60006020828403121561228057600080fd5b600061228e84828501611ff7565b91505092915050565b600080604083850312156122aa57600080fd5b600083013567ffffffffffffffff8111156122c457600080fd5b6122d085828601612036565b925050602083013567ffffffffffffffff8111156122ed57600080fd5b6122f985828601612036565b9150509250929050565b60006020828403121561231557600080fd5b600061232384828501612060565b91505092915050565b61233581612eb6565b82525050565b61234481612ec8565b82525050565b600061235582612db8565b61235f8185612dce565b935061236f818560208601612f39565b612378816130d4565b840191505092915050565b600061238e82612dc3565b6123988185612ddf565b93506123a8818560208601612f39565b6123b1816130d4565b840191505092915050565b60006123c782612dc3565b6123d18185612df0565b93506123e1818560208601612f39565b80840191505092915050565b60006123fa603283612ddf565b91507f4552433732313a207472616e7366657220746f206e6f6e20455243373231526560008301527f63656976657220696d706c656d656e74657200000000000000000000000000006020830152604082019050919050565b6000612460601c83612ddf565b91507f4552433732313a20746f6b656e20616c7265616479206d696e746564000000006000830152602082019050919050565b60006124a0602483612ddf565b91507f4552433732313a207472616e7366657220746f20746865207a65726f2061646460008301527f72657373000000000000000000000000000000000000000000000000000000006020830152604082019050919050565b6000612506601983612ddf565b91507f4552433732313a20617070726f766520746f2063616c6c6572000000000000006000830152602082019050919050565b6000612546602c83612ddf565b91507f4552433732313a206f70657261746f7220717565727920666f72206e6f6e657860008301527f697374656e7420746f6b656e00000000000000000000000000000000000000006020830152604082019050919050565b60006125ac603883612ddf565b91507f4552433732313a20617070726f76652063616c6c6572206973206e6f74206f7760008301527f6e6572206e6f7220617070726f76656420666f7220616c6c00000000000000006020830152604082019050919050565b6000612612602a83612ddf565b91507f4552433732313a2062616c616e636520717565727920666f7220746865207a6560008301527f726f2061646472657373000000000000000000000000000000000000000000006020830152604082019050919050565b6000612678602983612ddf565b91507f4552433732313a206f776e657220717565727920666f72206e6f6e657869737460008301527f656e7420746f6b656e00000000000000000000000000000000000000000000006020830152604082019050919050565b60006126de602e83612ddf565b91507f45524337323155524953746f726167653a2055524920736574206f66206e6f6e60008301527f6578697374656e7420746f6b656e0000000000000000000000000000000000006020830152604082019050919050565b6000612744602083612ddf565b91507f4552433732313a206d696e7420746f20746865207a65726f20616464726573736000830152602082019050919050565b6000612784603183612ddf565b91507f45524337323155524953746f726167653a2055524920717565727920666f722060008301527f6e6f6e6578697374656e7420746f6b656e0000000000000000000000000000006020830152604082019050919050565b60006127ea602c83612ddf565b91507f4552433732313a20617070726f76656420717565727920666f72206e6f6e657860008301527f697374656e7420746f6b656e00000000000000000000000000000000000000006020830152604082019050919050565b6000612850602983612ddf565b91507f4552433732313a207472616e73666572206f6620746f6b656e2074686174206960008301527f73206e6f74206f776e00000000000000000000000000000000000000000000006020830152604082019050919050565b60006128b6602f83612ddf565b91507f4552433732314d657461646174613a2055524920717565727920666f72206e6f60008301527f6e6578697374656e7420746f6b656e00000000000000000000000000000000006020830152604082019050919050565b600061291c602183612ddf565b91507f4552433732313a20617070726f76616c20746f2063757272656e74206f776e6560008301527f72000000000000000000000000000000000000000000000000000000000000006020830152604082019050919050565b6000612982603183612ddf565b91507f4552433732313a207472616e736665722063616c6c6572206973206e6f74206f60008301527f776e6572206e6f7220617070726f7665640000000000000000000000000000006020830152604082019050919050565b6129e481612f20565b82525050565b60006129f682856123bc565b9150612a0282846123bc565b91508190509392505050565b6000602082019050612a23600083018461232c565b92915050565b6000608082019050612a3e600083018761232c565b612a4b602083018661232c565b612a5860408301856129db565b8181036060830152612a6a818461234a565b905095945050505050565b6000602082019050612a8a600083018461233b565b92915050565b60006020820190508181036000830152612aaa8184612383565b905092915050565b600060a0820190508181036000830152612acc8188612383565b9050612adb60208301876129db565b612ae8604083018661232c565b612af560608301856129db565b612b0260808301846129db565b9695505050505050565b60006020820190508181036000830152612b25816123ed565b9050919050565b60006020820190508181036000830152612b4581612453565b9050919050565b60006020820190508181036000830152612b6581612493565b9050919050565b60006020820190508181036000830152612b85816124f9565b9050919050565b60006020820190508181036000830152612ba581612539565b9050919050565b60006020820190508181036000830152612bc58161259f565b9050919050565b60006020820190508181036000830152612be581612605565b9050919050565b60006020820190508181036000830152612c058161266b565b9050919050565b60006020820190508181036000830152612c25816126d1565b9050919050565b60006020820190508181036000830152612c4581612737565b9050919050565b60006020820190508181036000830152612c6581612777565b9050919050565b60006020820190508181036000830152612c85816127dd565b9050919050565b60006020820190508181036000830152612ca581612843565b9050919050565b60006020820190508181036000830152612cc5816128a9565b9050919050565b60006020820190508181036000830152612ce58161290f565b9050919050565b60006020820190508181036000830152612d0581612975565b9050919050565b6000602082019050612d2160008301846129db565b92915050565b6000604051905081810181811067ffffffffffffffff82111715612d4e57612d4d6130a5565b5b8060405250919050565b600067ffffffffffffffff821115612d7357612d726130a5565b5b601f19601f8301169050602081019050919050565b600067ffffffffffffffff821115612da357612da26130a5565b5b601f19601f8301169050602081019050919050565b600081519050919050565b600081519050919050565b600082825260208201905092915050565b600082825260208201905092915050565b600081905092915050565b6000612e0682612f20565b9150612e1183612f20565b9250827fffffffffffffffffffffffffffffffffffffffffffffffffffffffffffffffff03821115612e4657612e45613018565b5b828201905092915050565b6000612e5c82612f20565b9150612e6783612f20565b925082612e7757612e76613047565b5b828204905092915050565b6000612e8d82612f20565b9150612e9883612f20565b925082821015612eab57612eaa613018565b5b828203905092915050565b6000612ec182612f00565b9050919050565b60008115159050919050565b60007fffffffff0000000000000000000000000000000000000000000000000000000082169050919050565b600073ffffffffffffffffffffffffffffffffffffffff82169050919050565b6000819050919050565b82818337600083830152505050565b60005b83811015612f57578082015181840152602081019050612f3c565b83811115612f66576000848401525b50505050565b60006002820490506001821680612f8457607f821691505b60208210811415612f9857612f97613076565b5b50919050565b6000612fa982612f20565b91507fffffffffffffffffffffffffffffffffffffffffffffffffffffffffffffffff821415612fdc57612fdb613018565b5b600182019050919050565b6000612ff282612f20565b9150612ffd83612f20565b92508261300d5761300c613047565b5b828206905092915050565b7f4e487b7100000000000000000000000000000000000000000000000000000000600052601160045260246000fd5b7f4e487b7100000000000000000000000000000000000000000000000000000000600052601260045260246000fd5b7f4e487b7100000000000000000000000000000000000000000000000000000000600052602260045260246000fd5b7f4e487b7100000000000000000000000000000000000000000000000000000000600052604160045260246000fd5b6000601f19601f8301169050919050565b6130ee81612eb6565b81146130f957600080fd5b50565b61310581612ec8565b811461311057600080fd5b50565b61311c81612ed4565b811461312757600080fd5b50565b61313381612f20565b811461313e57600080fd5b5056fea2646970667358221220b6e77b7fbbf599b87c2eb1e53263eb84cd134ba7742dc03450f40bb1ce63da8664736f6c63430008000033",
  "immutableReferences": {},
  "source": "// contracts/NFTplanet.sol\n// SPDX-License-Identifier: MIT\npragma solidity ^0.8.0;\n\nimport \"@openzeppelin/contracts/token/ERC721/extensions/ERC721URIStorage.sol\";\nimport \"@openzeppelin/contracts/utils/Counters.sol\";\nimport \"./IProofOfHumanity.sol\";\n\ncontract NFTplanet is ERC721URIStorage {\n    using Counters for Counters.Counter;\n    Counters.Counter public totalPlanets;\n    mapping (address => uint256[]) planetsIds;\n    mapping(uint256 => Planet) public allPlanets;\n    mapping(address => bool) POHOwner;\n    event NewPlanet(uint256 id);\n    address public constant POH_ADDRESS = 0xC5E9dDebb09Cd64DfaCab4011A0D5cEDaf7c9BDb; // ETH mainnet\n    ProofOfHumanity proofContract;\n\n    struct Planet {\n        string name;\n        uint256 PlanetId;\n        address owner;\n        uint256 slots;\n        uint256 nftCounter;\n        NftArt[] allNfts;\n    }\n    \n    struct NftArt{\n        address contractAddress;\n        uint256 id;\n    }\n\n    constructor() ERC721(\"PlanetNFT\", \"PNFT\") {\n        proofContract= ProofOfHumanity(POH_ADDRESS);\n    }\n\n\n    function mintPlanet(string memory tokenURI, string memory name) payable public \n    { \n        if(proofContract.isRegistered(msg.sender) && !POHOwner[msg.sender]){\n            POHOwner[msg.sender]=true;\n            uint256 newPlanetId = totalPlanets.current();\n\n            totalPlanets.increment();  \n\n            _mint(msg.sender, newPlanetId);\n\n            uint256[] storage allIds =  planetsIds[msg.sender];\n            allIds.push(newPlanetId);\n\n            _setTokenURI(newPlanetId, tokenURI);\n\n            emit NewPlanet(newPlanetId);\n\n            Planet storage newPlanet = allPlanets[newPlanetId];\n            newPlanet.name = name;\n            newPlanet.PlanetId = newPlanetId;\n            newPlanet.owner = msg.sender;\n            newPlanet.slots =5;\n            newPlanet.nftCounter=0;\n        }else if(msg.value>= 0.0001 ether){\n           uint256 newPlanetId = totalPlanets.current();\n\n            totalPlanets.increment();  \n\n            _mint(msg.sender, newPlanetId);\n\n            uint256[] storage allIds =  planetsIds[msg.sender];\n            allIds.push(newPlanetId);\n\n            _setTokenURI(newPlanetId, tokenURI);\n\n            emit NewPlanet(newPlanetId);\n\n            Planet storage newPlanet = allPlanets[newPlanetId];\n            newPlanet.name = name;\n            newPlanet.PlanetId = newPlanetId;\n            newPlanet.owner = msg.sender;\n            newPlanet.slots =5;\n            newPlanet.nftCounter=0;\n        }\n        \n    }\n\n\n\n\n}\n\n\n",
  "sourcePath": "/Users/nikitaterekhov/Projects/ETHCC/Solar-NFT/contracts/NFTplanet.sol",
  "compiler": {
    "name": "solc",
    "version": "0.8.0+commit.c7dfd78e.Emscripten.clang"
  },
  "schemaVersion": "3.4.1",
  "updatedAt": "2021-07-24T19:51:56.359Z",
  "networkType": "ethereum",
  "devdoc": {
    "kind": "dev",
    "methods": {
      "approve(address,uint256)": {
        "details": "See {IERC721-approve}."
      },
      "balanceOf(address)": {
        "details": "See {IERC721-balanceOf}."
      },
      "getApproved(uint256)": {
        "details": "See {IERC721-getApproved}."
      },
      "isApprovedForAll(address,address)": {
        "details": "See {IERC721-isApprovedForAll}."
      },
      "name()": {
        "details": "See {IERC721Metadata-name}."
      },
      "ownerOf(uint256)": {
        "details": "See {IERC721-ownerOf}."
      },
      "safeTransferFrom(address,address,uint256)": {
        "details": "See {IERC721-safeTransferFrom}."
      },
      "safeTransferFrom(address,address,uint256,bytes)": {
        "details": "See {IERC721-safeTransferFrom}."
      },
      "setApprovalForAll(address,bool)": {
        "details": "See {IERC721-setApprovalForAll}."
      },
      "supportsInterface(bytes4)": {
        "details": "See {IERC165-supportsInterface}."
      },
      "symbol()": {
        "details": "See {IERC721Metadata-symbol}."
      },
      "tokenURI(uint256)": {
        "details": "See {IERC721Metadata-tokenURI}."
      },
      "transferFrom(address,address,uint256)": {
        "details": "See {IERC721-transferFrom}."
      }
    },
    "version": 1
  },
  "userdoc": {
    "kind": "user",
    "methods": {},
    "version": 1
  }
}