{
  "contractName": "NFTplanet",
  "abi": [
    {
      "inputs": [],
      "stateMutability": "nonpayable",
      "type": "constructor"
    },
    {
      "anonymous": false,
      "inputs": [
        {
          "indexed": true,
          "internalType": "address",
          "name": "owner",
          "type": "address"
        },
        {
          "indexed": true,
          "internalType": "address",
          "name": "approved",
          "type": "address"
        },
        {
          "indexed": true,
          "internalType": "uint256",
          "name": "tokenId",
          "type": "uint256"
        }
      ],
      "name": "Approval",
      "type": "event"
    },
    {
      "anonymous": false,
      "inputs": [
        {
          "indexed": true,
          "internalType": "address",
          "name": "owner",
          "type": "address"
        },
        {
          "indexed": true,
          "internalType": "address",
          "name": "operator",
          "type": "address"
        },
        {
          "indexed": false,
          "internalType": "bool",
          "name": "approved",
          "type": "bool"
        }
      ],
      "name": "ApprovalForAll",
      "type": "event"
    },
    {
      "anonymous": false,
      "inputs": [
        {
          "indexed": false,
          "internalType": "uint256",
          "name": "id",
          "type": "uint256"
        },
        {
          "indexed": false,
          "internalType": "uint256",
          "name": "nbSlots",
          "type": "uint256"
        }
      ],
      "name": "NewPlanet",
      "type": "event"
    },
    {
      "anonymous": false,
      "inputs": [
        {
          "indexed": true,
          "internalType": "address",
          "name": "from",
          "type": "address"
        },
        {
          "indexed": true,
          "internalType": "address",
          "name": "to",
          "type": "address"
        },
        {
          "indexed": true,
          "internalType": "uint256",
          "name": "tokenId",
          "type": "uint256"
        }
      ],
      "name": "Transfer",
      "type": "event"
    },
    {
      "inputs": [
        {
          "internalType": "uint256",
          "name": "",
          "type": "uint256"
        }
      ],
      "name": "allPlanets",
      "outputs": [
        {
          "internalType": "string",
          "name": "name",
          "type": "string"
        },
        {
          "internalType": "uint256",
          "name": "PlanetId",
          "type": "uint256"
        },
        {
          "internalType": "address",
          "name": "owner",
          "type": "address"
        },
        {
          "internalType": "uint256",
          "name": "slots",
          "type": "uint256"
        },
        {
          "internalType": "uint256",
          "name": "nftCounter",
          "type": "uint256"
        }
      ],
      "stateMutability": "view",
      "type": "function"
    },
    {
      "inputs": [
        {
          "internalType": "address",
          "name": "to",
          "type": "address"
        },
        {
          "internalType": "uint256",
          "name": "tokenId",
          "type": "uint256"
        }
      ],
      "name": "approve",
      "outputs": [],
      "stateMutability": "nonpayable",
      "type": "function"
    },
    {
      "inputs": [
        {
          "internalType": "address",
          "name": "owner",
          "type": "address"
        }
      ],
      "name": "balanceOf",
      "outputs": [
        {
          "internalType": "uint256",
          "name": "",
          "type": "uint256"
        }
      ],
      "stateMutability": "view",
      "type": "function"
    },
    {
      "inputs": [
        {
          "internalType": "uint256",
          "name": "tokenId",
          "type": "uint256"
        }
      ],
      "name": "getApproved",
      "outputs": [
        {
          "internalType": "address",
          "name": "",
          "type": "address"
        }
      ],
      "stateMutability": "view",
      "type": "function"
    },
    {
      "inputs": [
        {
          "internalType": "address",
          "name": "owner",
          "type": "address"
        },
        {
          "internalType": "address",
          "name": "operator",
          "type": "address"
        }
      ],
      "name": "isApprovedForAll",
      "outputs": [
        {
          "internalType": "bool",
          "name": "",
          "type": "bool"
        }
      ],
      "stateMutability": "view",
      "type": "function"
    },
    {
      "inputs": [],
      "name": "name",
      "outputs": [
        {
          "internalType": "string",
          "name": "",
          "type": "string"
        }
      ],
      "stateMutability": "view",
      "type": "function"
    },
    {
      "inputs": [
        {
          "internalType": "uint256",
          "name": "tokenId",
          "type": "uint256"
        }
      ],
      "name": "ownerOf",
      "outputs": [
        {
          "internalType": "address",
          "name": "",
          "type": "address"
        }
      ],
      "stateMutability": "view",
      "type": "function"
    },
    {
      "inputs": [
        {
          "internalType": "address",
          "name": "from",
          "type": "address"
        },
        {
          "internalType": "address",
          "name": "to",
          "type": "address"
        },
        {
          "internalType": "uint256",
          "name": "tokenId",
          "type": "uint256"
        }
      ],
      "name": "safeTransferFrom",
      "outputs": [],
      "stateMutability": "nonpayable",
      "type": "function"
    },
    {
      "inputs": [
        {
          "internalType": "address",
          "name": "from",
          "type": "address"
        },
        {
          "internalType": "address",
          "name": "to",
          "type": "address"
        },
        {
          "internalType": "uint256",
          "name": "tokenId",
          "type": "uint256"
        },
        {
          "internalType": "bytes",
          "name": "_data",
          "type": "bytes"
        }
      ],
      "name": "safeTransferFrom",
      "outputs": [],
      "stateMutability": "nonpayable",
      "type": "function"
    },
    {
      "inputs": [
        {
          "internalType": "address",
          "name": "operator",
          "type": "address"
        },
        {
          "internalType": "bool",
          "name": "approved",
          "type": "bool"
        }
      ],
      "name": "setApprovalForAll",
      "outputs": [],
      "stateMutability": "nonpayable",
      "type": "function"
    },
    {
      "inputs": [
        {
          "internalType": "bytes4",
          "name": "interfaceId",
          "type": "bytes4"
        }
      ],
      "name": "supportsInterface",
      "outputs": [
        {
          "internalType": "bool",
          "name": "",
          "type": "bool"
        }
      ],
      "stateMutability": "view",
      "type": "function"
    },
    {
      "inputs": [],
      "name": "symbol",
      "outputs": [
        {
          "internalType": "string",
          "name": "",
          "type": "string"
        }
      ],
      "stateMutability": "view",
      "type": "function"
    },
    {
      "inputs": [
        {
          "internalType": "uint256",
          "name": "tokenId",
          "type": "uint256"
        }
      ],
      "name": "tokenURI",
      "outputs": [
        {
          "internalType": "string",
          "name": "",
          "type": "string"
        }
      ],
      "stateMutability": "view",
      "type": "function"
    },
    {
      "inputs": [],
      "name": "totalPlanets",
      "outputs": [
        {
          "internalType": "uint256",
          "name": "_value",
          "type": "uint256"
        }
      ],
      "stateMutability": "view",
      "type": "function"
    },
    {
      "inputs": [
        {
          "internalType": "address",
          "name": "from",
          "type": "address"
        },
        {
          "internalType": "address",
          "name": "to",
          "type": "address"
        },
        {
          "internalType": "uint256",
          "name": "tokenId",
          "type": "uint256"
        }
      ],
      "name": "transferFrom",
      "outputs": [],
      "stateMutability": "nonpayable",
      "type": "function"
    },
    {
      "inputs": [
        {
          "internalType": "string",
          "name": "tokenURI",
          "type": "string"
        },
        {
          "internalType": "string",
          "name": "name",
          "type": "string"
        }
      ],
      "name": "mintPlanet",
      "outputs": [],
      "stateMutability": "payable",
      "type": "function"
    }
  ],
  "bytecode": "0x60806040523480156200001157600080fd5b506040518060400160405280600981526020017f506c616e65744e465400000000000000000000000000000000000000000000008152506040518060400160405280600481526020017f504e465400000000000000000000000000000000000000000000000000000000815250816000908051906020019062000096929190620000b8565b508060019080519060200190620000af929190620000b8565b505050620001cd565b828054620000c69062000168565b90600052602060002090601f016020900481019282620000ea576000855562000136565b82601f106200010557805160ff191683800117855562000136565b8280016001018555821562000136579182015b828111156200013557825182559160200191906001019062000118565b5b50905062000145919062000149565b5090565b5b80821115620001645760008160009055506001016200014a565b5090565b600060028204905060018216806200018157607f821691505b602082108114156200019857620001976200019e565b5b50919050565b7f4e487b7100000000000000000000000000000000000000000000000000000000600052602260045260246000fd5b612e5580620001dd6000396000f3fe6080604052600436106100f35760003560e01c80636c0584831161008a578063b88d4fde11610059578063b88d4fde14610343578063c87b56dd1461036c578063ca81f45d146103a9578063e985e9c5146103d4576100f3565b80636c0584831461029657806370a08231146102b257806395d89b41146102ef578063a22cb4651461031a576100f3565b80630c57e2d9116100c65780630c57e2d9146101c657806323b872dd1461020757806342842e0e146102305780636352211e14610259576100f3565b806301ffc9a7146100f857806306fdde0314610135578063081812fc14610160578063095ea7b31461019d575b600080fd5b34801561010457600080fd5b5061011f600480360381019061011a9190611efa565b610411565b60405161012c919061272a565b60405180910390f35b34801561014157600080fd5b5061014a6104f3565b6040516101579190612745565b60405180910390f35b34801561016c57600080fd5b5061018760048036038101906101829190611fb8565b610585565b60405161019491906126c3565b60405180910390f35b3480156101a957600080fd5b506101c460048036038101906101bf9190611ebe565b61060a565b005b3480156101d257600080fd5b506101ed60048036038101906101e89190611fb8565b610722565b6040516101fe959493929190612767565b60405180910390f35b34801561021357600080fd5b5061022e60048036038101906102299190611db8565b610800565b005b34801561023c57600080fd5b5061025760048036038101906102529190611db8565b610860565b005b34801561026557600080fd5b50610280600480360381019061027b9190611fb8565b610880565b60405161028d91906126c3565b60405180910390f35b6102b060048036038101906102ab9190611f4c565b610932565b005b3480156102be57600080fd5b506102d960048036038101906102d49190611d53565b610aab565b6040516102e691906129c1565b60405180910390f35b3480156102fb57600080fd5b50610304610b63565b6040516103119190612745565b60405180910390f35b34801561032657600080fd5b50610341600480360381019061033c9190611e82565b610bf5565b005b34801561034f57600080fd5b5061036a60048036038101906103659190611e07565b610d76565b005b34801561037857600080fd5b50610393600480360381019061038e9190611fb8565b610dd8565b6040516103a09190612745565b60405180910390f35b3480156103b557600080fd5b506103be610f2a565b6040516103cb91906129c1565b60405180910390f35b3480156103e057600080fd5b506103fb60048036038101906103f69190611d7c565b610f36565b604051610408919061272a565b60405180910390f35b60007f80ac58cd000000000000000000000000000000000000000000000000000000007bffffffffffffffffffffffffffffffffffffffffffffffffffffffff1916827bffffffffffffffffffffffffffffffffffffffffffffffffffffffff191614806104dc57507f5b5e139f000000000000000000000000000000000000000000000000000000007bffffffffffffffffffffffffffffffffffffffffffffffffffffffff1916827bffffffffffffffffffffffffffffffffffffffffffffffffffffffff1916145b806104ec57506104eb82610fca565b5b9050919050565b60606000805461050290612c4a565b80601f016020809104026020016040519081016040528092919081815260200182805461052e90612c4a565b801561057b5780601f106105505761010080835404028352916020019161057b565b820191906000526020600020905b81548152906001019060200180831161055e57829003601f168201915b5050505050905090565b600061059082611034565b6105cf576040517f08c379a00000000000000000000000000000000000000000000000000000000081526004016105c690612921565b60405180910390fd5b6004600083815260200190815260200160002060009054906101000a900473ffffffffffffffffffffffffffffffffffffffff169050919050565b600061061582610880565b90508073ffffffffffffffffffffffffffffffffffffffff168373ffffffffffffffffffffffffffffffffffffffff161415610686576040517f08c379a000000000000000000000000000000000000000000000000000000000815260040161067d90612981565b60405180910390fd5b8073ffffffffffffffffffffffffffffffffffffffff166106a56110a0565b73ffffffffffffffffffffffffffffffffffffffff1614806106d457506106d3816106ce6110a0565b610f36565b5b610713576040517f08c379a000000000000000000000000000000000000000000000000000000000815260040161070a90612861565b60405180910390fd5b61071d83836110a8565b505050565b600960205280600052604060002060009150905080600001805461074590612c4a565b80601f016020809104026020016040519081016040528092919081815260200182805461077190612c4a565b80156107be5780601f10610793576101008083540402835291602001916107be565b820191906000526020600020905b8154815290600101906020018083116107a157829003601f168201915b5050505050908060010154908060020160009054906101000a900473ffffffffffffffffffffffffffffffffffffffff16908060030154908060040154905085565b61081161080b6110a0565b82611161565b610850576040517f08c379a0000000000000000000000000000000000000000000000000000000008152600401610847906129a1565b60405180910390fd5b61085b83838361123f565b505050565b61087b83838360405180602001604052806000815250610d76565b505050565b6000806002600084815260200190815260200160002060009054906101000a900473ffffffffffffffffffffffffffffffffffffffff169050600073ffffffffffffffffffffffffffffffffffffffff168173ffffffffffffffffffffffffffffffffffffffff161415610929576040517f08c379a0000000000000000000000000000000000000000000000000000000008152600401610920906128a1565b60405180910390fd5b80915050919050565b655af3107a40003410610aa757600061094b600761149b565b905061095760076114a9565b61096133826114bf565b6000600860003373ffffffffffffffffffffffffffffffffffffffff1673ffffffffffffffffffffffffffffffffffffffff1681526020019081526020016000209050808290806001815401808255809150506001900390600052602060002001600090919091909150556109d6828561168d565b600060096000848152602001908152602001600020905083816000019080519060200190610a05929190611b77565b50828160010181905550338160020160006101000a81548173ffffffffffffffffffffffffffffffffffffffff021916908373ffffffffffffffffffffffffffffffffffffffff160217905550600581600301819055507f87fa44305202bd01edfc73ba87f227b68fc1830fb4929343ea206f512b5939f3838260030154604051610a919291906129dc565b60405180910390a1600081600401819055505050505b5050565b60008073ffffffffffffffffffffffffffffffffffffffff168273ffffffffffffffffffffffffffffffffffffffff161415610b1c576040517f08c379a0000000000000000000000000000000000000000000000000000000008152600401610b1390612881565b60405180910390fd5b600360008373ffffffffffffffffffffffffffffffffffffffff1673ffffffffffffffffffffffffffffffffffffffff168152602001908152602001600020549050919050565b606060018054610b7290612c4a565b80601f0160208091040260200160405190810160405280929190818152602001828054610b9e90612c4a565b8015610beb5780601f10610bc057610100808354040283529160200191610beb565b820191906000526020600020905b815481529060010190602001808311610bce57829003601f168201915b5050505050905090565b610bfd6110a0565b73ffffffffffffffffffffffffffffffffffffffff168273ffffffffffffffffffffffffffffffffffffffff161415610c6b576040517f08c379a0000000000000000000000000000000000000000000000000000000008152600401610c6290612821565b60405180910390fd5b8060056000610c786110a0565b73ffffffffffffffffffffffffffffffffffffffff1673ffffffffffffffffffffffffffffffffffffffff16815260200190815260200160002060008473ffffffffffffffffffffffffffffffffffffffff1673ffffffffffffffffffffffffffffffffffffffff16815260200190815260200160002060006101000a81548160ff0219169083151502179055508173ffffffffffffffffffffffffffffffffffffffff16610d256110a0565b73ffffffffffffffffffffffffffffffffffffffff167f17307eab39ab6107e8899845ad3d59bd9653f200f220920489ca2b5937696c3183604051610d6a919061272a565b60405180910390a35050565b610d87610d816110a0565b83611161565b610dc6576040517f08c379a0000000000000000000000000000000000000000000000000000000008152600401610dbd906129a1565b60405180910390fd5b610dd284848484611701565b50505050565b6060610de382611034565b610e22576040517f08c379a0000000000000000000000000000000000000000000000000000000008152600401610e1990612901565b60405180910390fd5b6000600660008481526020019081526020016000208054610e4290612c4a565b80601f0160208091040260200160405190810160405280929190818152602001828054610e6e90612c4a565b8015610ebb5780601f10610e9057610100808354040283529160200191610ebb565b820191906000526020600020905b815481529060010190602001808311610e9e57829003601f168201915b505050505090506000610ecc61175d565b9050600081511415610ee2578192505050610f25565b600082511115610f17578082604051602001610eff92919061269f565b60405160208183030381529060405292505050610f25565b610f2084611774565b925050505b919050565b60078060000154905081565b6000600560008473ffffffffffffffffffffffffffffffffffffffff1673ffffffffffffffffffffffffffffffffffffffff16815260200190815260200160002060008373ffffffffffffffffffffffffffffffffffffffff1673ffffffffffffffffffffffffffffffffffffffff16815260200190815260200160002060009054906101000a900460ff16905092915050565b60007f01ffc9a7000000000000000000000000000000000000000000000000000000007bffffffffffffffffffffffffffffffffffffffffffffffffffffffff1916827bffffffffffffffffffffffffffffffffffffffffffffffffffffffff1916149050919050565b60008073ffffffffffffffffffffffffffffffffffffffff166002600084815260200190815260200160002060009054906101000a900473ffffffffffffffffffffffffffffffffffffffff1673ffffffffffffffffffffffffffffffffffffffff1614159050919050565b600033905090565b816004600083815260200190815260200160002060006101000a81548173ffffffffffffffffffffffffffffffffffffffff021916908373ffffffffffffffffffffffffffffffffffffffff160217905550808273ffffffffffffffffffffffffffffffffffffffff1661111b83610880565b73ffffffffffffffffffffffffffffffffffffffff167f8c5be1e5ebec7d5bd14f71427d1e84f3dd0314c0f7b2291e5b200ac8c7c3b92560405160405180910390a45050565b600061116c82611034565b6111ab576040517f08c379a00000000000000000000000000000000000000000000000000000000081526004016111a290612841565b60405180910390fd5b60006111b683610880565b90508073ffffffffffffffffffffffffffffffffffffffff168473ffffffffffffffffffffffffffffffffffffffff16148061122557508373ffffffffffffffffffffffffffffffffffffffff1661120d84610585565b73ffffffffffffffffffffffffffffffffffffffff16145b8061123657506112358185610f36565b5b91505092915050565b8273ffffffffffffffffffffffffffffffffffffffff1661125f82610880565b73ffffffffffffffffffffffffffffffffffffffff16146112b5576040517f08c379a00000000000000000000000000000000000000000000000000000000081526004016112ac90612941565b60405180910390fd5b600073ffffffffffffffffffffffffffffffffffffffff168273ffffffffffffffffffffffffffffffffffffffff161415611325576040517f08c379a000000000000000000000000000000000000000000000000000000000815260040161131c90612801565b60405180910390fd5b61133083838361181b565b61133b6000826110a8565b6001600360008573ffffffffffffffffffffffffffffffffffffffff1673ffffffffffffffffffffffffffffffffffffffff168152602001908152602001600020600082825461138b9190612b60565b925050819055506001600360008473ffffffffffffffffffffffffffffffffffffffff1673ffffffffffffffffffffffffffffffffffffffff16815260200190815260200160002060008282546113e29190612ad9565b92505081905550816002600083815260200190815260200160002060006101000a81548173ffffffffffffffffffffffffffffffffffffffff021916908373ffffffffffffffffffffffffffffffffffffffff160217905550808273ffffffffffffffffffffffffffffffffffffffff168473ffffffffffffffffffffffffffffffffffffffff167fddf252ad1be2c89b69c2b068fc378daa952ba7f163c4a11628f55a4df523b3ef60405160405180910390a4505050565b600081600001549050919050565b6001816000016000828254019250508190555050565b600073ffffffffffffffffffffffffffffffffffffffff168273ffffffffffffffffffffffffffffffffffffffff16141561152f576040517f08c379a0000000000000000000000000000000000000000000000000000000008152600401611526906128e1565b60405180910390fd5b61153881611034565b15611578576040517f08c379a000000000000000000000000000000000000000000000000000000000815260040161156f906127e1565b60405180910390fd5b6115846000838361181b565b6001600360008473ffffffffffffffffffffffffffffffffffffffff1673ffffffffffffffffffffffffffffffffffffffff16815260200190815260200160002060008282546115d49190612ad9565b92505081905550816002600083815260200190815260200160002060006101000a81548173ffffffffffffffffffffffffffffffffffffffff021916908373ffffffffffffffffffffffffffffffffffffffff160217905550808273ffffffffffffffffffffffffffffffffffffffff16600073ffffffffffffffffffffffffffffffffffffffff167fddf252ad1be2c89b69c2b068fc378daa952ba7f163c4a11628f55a4df523b3ef60405160405180910390a45050565b61169682611034565b6116d5576040517f08c379a00000000000000000000000000000000000000000000000000000000081526004016116cc906128c1565b60405180910390fd5b806006600084815260200190815260200160002090805190602001906116fc929190611b77565b505050565b61170c84848461123f565b61171884848484611820565b611757576040517f08c379a000000000000000000000000000000000000000000000000000000000815260040161174e906127c1565b60405180910390fd5b50505050565b606060405180602001604052806000815250905090565b606061177f82611034565b6117be576040517f08c379a00000000000000000000000000000000000000000000000000000000081526004016117b590612961565b60405180910390fd5b60006117c861175d565b905060008151116117e85760405180602001604052806000815250611813565b806117f2846119b7565b60405160200161180392919061269f565b6040516020818303038152906040525b915050919050565b505050565b60006118418473ffffffffffffffffffffffffffffffffffffffff16611b64565b156119aa578373ffffffffffffffffffffffffffffffffffffffff1663150b7a0261186a6110a0565b8786866040518563ffffffff1660e01b815260040161188c94939291906126de565b602060405180830381600087803b1580156118a657600080fd5b505af19250505080156118d757506040513d601f19601f820116820180604052508101906118d49190611f23565b60015b61195a573d8060008114611907576040519150601f19603f3d011682016040523d82523d6000602084013e61190c565b606091505b50600081511415611952576040517f08c379a0000000000000000000000000000000000000000000000000000000008152600401611949906127c1565b60405180910390fd5b805181602001fd5b63150b7a0260e01b7bffffffffffffffffffffffffffffffffffffffffffffffffffffffff1916817bffffffffffffffffffffffffffffffffffffffffffffffffffffffff1916149150506119af565b600190505b949350505050565b606060008214156119ff576040518060400160405280600181526020017f30000000000000000000000000000000000000000000000000000000000000008152509050611b5f565b600082905060005b60008214611a31578080611a1a90612c7c565b915050600a82611a2a9190612b2f565b9150611a07565b60008167ffffffffffffffff811115611a73577f4e487b7100000000000000000000000000000000000000000000000000000000600052604160045260246000fd5b6040519080825280601f01601f191660200182016040528015611aa55781602001600182028036833780820191505090505b5090505b60008514611b5857600182611abe9190612b60565b9150600a85611acd9190612cc5565b6030611ad99190612ad9565b60f81b818381518110611b15577f4e487b7100000000000000000000000000000000000000000000000000000000600052603260045260246000fd5b60200101907effffffffffffffffffffffffffffffffffffffffffffffffffffffffffffff1916908160001a905350600a85611b519190612b2f565b9450611aa9565b8093505050505b919050565b600080823b905060008111915050919050565b828054611b8390612c4a565b90600052602060002090601f016020900481019282611ba55760008555611bec565b82601f10611bbe57805160ff1916838001178555611bec565b82800160010185558215611bec579182015b82811115611beb578251825591602001919060010190611bd0565b5b509050611bf99190611bfd565b5090565b5b80821115611c16576000816000905550600101611bfe565b5090565b6000611c2d611c2884612a36565b612a05565b905082815260208101848484011115611c4557600080fd5b611c50848285612c08565b509392505050565b6000611c6b611c6684612a66565b612a05565b905082815260208101848484011115611c8357600080fd5b611c8e848285612c08565b509392505050565b600081359050611ca581612dc3565b92915050565b600081359050611cba81612dda565b92915050565b600081359050611ccf81612df1565b92915050565b600081519050611ce481612df1565b92915050565b600082601f830112611cfb57600080fd5b8135611d0b848260208601611c1a565b91505092915050565b600082601f830112611d2557600080fd5b8135611d35848260208601611c58565b91505092915050565b600081359050611d4d81612e08565b92915050565b600060208284031215611d6557600080fd5b6000611d7384828501611c96565b91505092915050565b60008060408385031215611d8f57600080fd5b6000611d9d85828601611c96565b9250506020611dae85828601611c96565b9150509250929050565b600080600060608486031215611dcd57600080fd5b6000611ddb86828701611c96565b9350506020611dec86828701611c96565b9250506040611dfd86828701611d3e565b9150509250925092565b60008060008060808587031215611e1d57600080fd5b6000611e2b87828801611c96565b9450506020611e3c87828801611c96565b9350506040611e4d87828801611d3e565b925050606085013567ffffffffffffffff811115611e6a57600080fd5b611e7687828801611cea565b91505092959194509250565b60008060408385031215611e9557600080fd5b6000611ea385828601611c96565b9250506020611eb485828601611cab565b9150509250929050565b60008060408385031215611ed157600080fd5b6000611edf85828601611c96565b9250506020611ef085828601611d3e565b9150509250929050565b600060208284031215611f0c57600080fd5b6000611f1a84828501611cc0565b91505092915050565b600060208284031215611f3557600080fd5b6000611f4384828501611cd5565b91505092915050565b60008060408385031215611f5f57600080fd5b600083013567ffffffffffffffff811115611f7957600080fd5b611f8585828601611d14565b925050602083013567ffffffffffffffff811115611fa257600080fd5b611fae85828601611d14565b9150509250929050565b600060208284031215611fca57600080fd5b6000611fd884828501611d3e565b91505092915050565b611fea81612b94565b82525050565b611ff981612ba6565b82525050565b600061200a82612a96565b6120148185612aac565b9350612024818560208601612c17565b61202d81612db2565b840191505092915050565b600061204382612aa1565b61204d8185612abd565b935061205d818560208601612c17565b61206681612db2565b840191505092915050565b600061207c82612aa1565b6120868185612ace565b9350612096818560208601612c17565b80840191505092915050565b60006120af603283612abd565b91507f4552433732313a207472616e7366657220746f206e6f6e20455243373231526560008301527f63656976657220696d706c656d656e74657200000000000000000000000000006020830152604082019050919050565b6000612115601c83612abd565b91507f4552433732313a20746f6b656e20616c7265616479206d696e746564000000006000830152602082019050919050565b6000612155602483612abd565b91507f4552433732313a207472616e7366657220746f20746865207a65726f2061646460008301527f72657373000000000000000000000000000000000000000000000000000000006020830152604082019050919050565b60006121bb601983612abd565b91507f4552433732313a20617070726f766520746f2063616c6c6572000000000000006000830152602082019050919050565b60006121fb602c83612abd565b91507f4552433732313a206f70657261746f7220717565727920666f72206e6f6e657860008301527f697374656e7420746f6b656e00000000000000000000000000000000000000006020830152604082019050919050565b6000612261603883612abd565b91507f4552433732313a20617070726f76652063616c6c6572206973206e6f74206f7760008301527f6e6572206e6f7220617070726f76656420666f7220616c6c00000000000000006020830152604082019050919050565b60006122c7602a83612abd565b91507f4552433732313a2062616c616e636520717565727920666f7220746865207a6560008301527f726f2061646472657373000000000000000000000000000000000000000000006020830152604082019050919050565b600061232d602983612abd565b91507f4552433732313a206f776e657220717565727920666f72206e6f6e657869737460008301527f656e7420746f6b656e00000000000000000000000000000000000000000000006020830152604082019050919050565b6000612393602e83612abd565b91507f45524337323155524953746f726167653a2055524920736574206f66206e6f6e60008301527f6578697374656e7420746f6b656e0000000000000000000000000000000000006020830152604082019050919050565b60006123f9602083612abd565b91507f4552433732313a206d696e7420746f20746865207a65726f20616464726573736000830152602082019050919050565b6000612439603183612abd565b91507f45524337323155524953746f726167653a2055524920717565727920666f722060008301527f6e6f6e6578697374656e7420746f6b656e0000000000000000000000000000006020830152604082019050919050565b600061249f602c83612abd565b91507f4552433732313a20617070726f76656420717565727920666f72206e6f6e657860008301527f697374656e7420746f6b656e00000000000000000000000000000000000000006020830152604082019050919050565b6000612505602983612abd565b91507f4552433732313a207472616e73666572206f6620746f6b656e2074686174206960008301527f73206e6f74206f776e00000000000000000000000000000000000000000000006020830152604082019050919050565b600061256b602f83612abd565b91507f4552433732314d657461646174613a2055524920717565727920666f72206e6f60008301527f6e6578697374656e7420746f6b656e00000000000000000000000000000000006020830152604082019050919050565b60006125d1602183612abd565b91507f4552433732313a20617070726f76616c20746f2063757272656e74206f776e6560008301527f72000000000000000000000000000000000000000000000000000000000000006020830152604082019050919050565b6000612637603183612abd565b91507f4552433732313a207472616e736665722063616c6c6572206973206e6f74206f60008301527f776e6572206e6f7220617070726f7665640000000000000000000000000000006020830152604082019050919050565b61269981612bfe565b82525050565b60006126ab8285612071565b91506126b78284612071565b91508190509392505050565b60006020820190506126d86000830184611fe1565b92915050565b60006080820190506126f36000830187611fe1565b6127006020830186611fe1565b61270d6040830185612690565b818103606083015261271f8184611fff565b905095945050505050565b600060208201905061273f6000830184611ff0565b92915050565b6000602082019050818103600083015261275f8184612038565b905092915050565b600060a08201905081810360008301526127818188612038565b90506127906020830187612690565b61279d6040830186611fe1565b6127aa6060830185612690565b6127b76080830184612690565b9695505050505050565b600060208201905081810360008301526127da816120a2565b9050919050565b600060208201905081810360008301526127fa81612108565b9050919050565b6000602082019050818103600083015261281a81612148565b9050919050565b6000602082019050818103600083015261283a816121ae565b9050919050565b6000602082019050818103600083015261285a816121ee565b9050919050565b6000602082019050818103600083015261287a81612254565b9050919050565b6000602082019050818103600083015261289a816122ba565b9050919050565b600060208201905081810360008301526128ba81612320565b9050919050565b600060208201905081810360008301526128da81612386565b9050919050565b600060208201905081810360008301526128fa816123ec565b9050919050565b6000602082019050818103600083015261291a8161242c565b9050919050565b6000602082019050818103600083015261293a81612492565b9050919050565b6000602082019050818103600083015261295a816124f8565b9050919050565b6000602082019050818103600083015261297a8161255e565b9050919050565b6000602082019050818103600083015261299a816125c4565b9050919050565b600060208201905081810360008301526129ba8161262a565b9050919050565b60006020820190506129d66000830184612690565b92915050565b60006040820190506129f16000830185612690565b6129fe6020830184612690565b9392505050565b6000604051905081810181811067ffffffffffffffff82111715612a2c57612a2b612d83565b5b8060405250919050565b600067ffffffffffffffff821115612a5157612a50612d83565b5b601f19601f8301169050602081019050919050565b600067ffffffffffffffff821115612a8157612a80612d83565b5b601f19601f8301169050602081019050919050565b600081519050919050565b600081519050919050565b600082825260208201905092915050565b600082825260208201905092915050565b600081905092915050565b6000612ae482612bfe565b9150612aef83612bfe565b9250827fffffffffffffffffffffffffffffffffffffffffffffffffffffffffffffffff03821115612b2457612b23612cf6565b5b828201905092915050565b6000612b3a82612bfe565b9150612b4583612bfe565b925082612b5557612b54612d25565b5b828204905092915050565b6000612b6b82612bfe565b9150612b7683612bfe565b925082821015612b8957612b88612cf6565b5b828203905092915050565b6000612b9f82612bde565b9050919050565b60008115159050919050565b60007fffffffff0000000000000000000000000000000000000000000000000000000082169050919050565b600073ffffffffffffffffffffffffffffffffffffffff82169050919050565b6000819050919050565b82818337600083830152505050565b60005b83811015612c35578082015181840152602081019050612c1a565b83811115612c44576000848401525b50505050565b60006002820490506001821680612c6257607f821691505b60208210811415612c7657612c75612d54565b5b50919050565b6000612c8782612bfe565b91507fffffffffffffffffffffffffffffffffffffffffffffffffffffffffffffffff821415612cba57612cb9612cf6565b5b600182019050919050565b6000612cd082612bfe565b9150612cdb83612bfe565b925082612ceb57612cea612d25565b5b828206905092915050565b7f4e487b7100000000000000000000000000000000000000000000000000000000600052601160045260246000fd5b7f4e487b7100000000000000000000000000000000000000000000000000000000600052601260045260246000fd5b7f4e487b7100000000000000000000000000000000000000000000000000000000600052602260045260246000fd5b7f4e487b7100000000000000000000000000000000000000000000000000000000600052604160045260246000fd5b6000601f19601f8301169050919050565b612dcc81612b94565b8114612dd757600080fd5b50565b612de381612ba6565b8114612dee57600080fd5b50565b612dfa81612bb2565b8114612e0557600080fd5b50565b612e1181612bfe565b8114612e1c57600080fd5b5056fea2646970667358221220a66aa664f9f4a20bc950a4c7bfdcd11f4aca03de24c2ba736a566b9b9e9862cc64736f6c63430008000033",
  "immutableReferences": {},
  "source": "// contracts/NFTplanet.sol\n// SPDX-License-Identifier: MIT\npragma solidity ^0.8.0;\n\nimport \"@openzeppelin/contracts/token/ERC721/extensions/ERC721URIStorage.sol\";\nimport \"@openzeppelin/contracts/utils/Counters.sol\";\nimport \"./IProofOfHumanity.sol\";\n\ncontract NFTplanet is ERC721URIStorage {\n    using Counters for Counters.Counter;\n    Counters.Counter public totalPlanets;\n    mapping (address => uint256[]) planetsIds;\n    mapping(uint256 => Planet) public allPlanets;\n    mapping(address => bool) POHOwner;\n    event NewPlanet(uint256 id, uint nbSlots);\n\n/*\n    address public constant POH_ADDRESS = 0x9b1590A4D36255b3b18Bb681062FD159f809009f; // ETH ropsten\n*/\n    ProofOfHumanity proofContract;\n\n    struct Planet {\n        string name;\n        uint256 PlanetId;\n        address owner;\n        uint256 slots;\n        uint256 nftCounter;\n        NftArt[] allNfts;\n    }\n    \n    struct NftArt{\n        address contractAddress;\n        uint256 id;\n    }\n\n    constructor() ERC721(\"PlanetNFT\", \"PNFT\") {\n/*\n        proofContract= ProofOfHumanity(POH_ADDRESS);\n*/\n    }\n\n\n    function mintPlanet(string memory tokenURI, string memory name) payable public \n    { \n      /*  if(proofContract.isRegistered(msg.sender) && !POHOwner[msg.sender]){\n            POHOwner[msg.sender]=true;\n            uint256 newPlanetId = totalPlanets.current();\n\n            totalPlanets.increment();  \n\n            _mint(msg.sender, newPlanetId);\n\n            uint256[] storage allIds =  planetsIds[msg.sender];\n            allIds.push(newPlanetId);\n\n            _setTokenURI(newPlanetId, tokenURI);\n\n            Planet storage newPlanet = allPlanets[newPlanetId];\n            newPlanet.name = name;\n            newPlanet.PlanetId = newPlanetId;\n            newPlanet.owner = msg.sender;\n            newPlanet.slots =5;\n            emit NewPlanet(newPlanetId, newPlanet.slots);\n\n            newPlanet.nftCounter=0;\n        }else*/ if(msg.value>= 0.0001 ether){\n           uint256 newPlanetId = totalPlanets.current();\n\n            totalPlanets.increment();  \n\n            _mint(msg.sender, newPlanetId);\n\n            uint256[] storage allIds =  planetsIds[msg.sender];\n            allIds.push(newPlanetId);\n\n            _setTokenURI(newPlanetId, tokenURI);\n\n\n            Planet storage newPlanet = allPlanets[newPlanetId];\n            newPlanet.name = name;\n            newPlanet.PlanetId = newPlanetId;\n            newPlanet.owner = msg.sender;\n            newPlanet.slots =5;\n            emit NewPlanet(newPlanetId, newPlanet.slots);\n\n            newPlanet.nftCounter=0;\n        }\n        \n    }\n\n\n\n\n}\n\n\n",
  "sourcePath": "/Users/nikitaterekhov/Projects/ETHCC/Solar-NFT/contracts/NFTplanet.sol",
  "compiler": {
    "name": "solc",
    "version": "0.8.0+commit.c7dfd78e.Emscripten.clang"
  },
  "schemaVersion": "3.4.1",
  "updatedAt": "2021-07-25T10:57:59.604Z",
  "devdoc": {
    "kind": "dev",
    "methods": {
      "approve(address,uint256)": {
        "details": "See {IERC721-approve}."
      },
      "balanceOf(address)": {
        "details": "See {IERC721-balanceOf}."
      },
      "getApproved(uint256)": {
        "details": "See {IERC721-getApproved}."
      },
      "isApprovedForAll(address,address)": {
        "details": "See {IERC721-isApprovedForAll}."
      },
      "name()": {
        "details": "See {IERC721Metadata-name}."
      },
      "ownerOf(uint256)": {
        "details": "See {IERC721-ownerOf}."
      },
      "safeTransferFrom(address,address,uint256)": {
        "details": "See {IERC721-safeTransferFrom}."
      },
      "safeTransferFrom(address,address,uint256,bytes)": {
        "details": "See {IERC721-safeTransferFrom}."
      },
      "setApprovalForAll(address,bool)": {
        "details": "See {IERC721-setApprovalForAll}."
      },
      "supportsInterface(bytes4)": {
        "details": "See {IERC165-supportsInterface}."
      },
      "symbol()": {
        "details": "See {IERC721Metadata-symbol}."
      },
      "tokenURI(uint256)": {
        "details": "See {IERC721Metadata-tokenURI}."
      },
      "transferFrom(address,address,uint256)": {
        "details": "See {IERC721-transferFrom}."
      }
    },
    "version": 1
  },
  "userdoc": {
    "kind": "user",
    "methods": {},
    "version": 1
  }
}