{
  "contractName": "NFTplanet",
  "abi": [
    {
      "inputs": [],
      "stateMutability": "nonpayable",
      "type": "constructor"
    },
    {
      "anonymous": false,
      "inputs": [
        {
          "indexed": true,
          "internalType": "address",
          "name": "owner",
          "type": "address"
        },
        {
          "indexed": true,
          "internalType": "address",
          "name": "approved",
          "type": "address"
        },
        {
          "indexed": true,
          "internalType": "uint256",
          "name": "tokenId",
          "type": "uint256"
        }
      ],
      "name": "Approval",
      "type": "event"
    },
    {
      "anonymous": false,
      "inputs": [
        {
          "indexed": true,
          "internalType": "address",
          "name": "owner",
          "type": "address"
        },
        {
          "indexed": true,
          "internalType": "address",
          "name": "operator",
          "type": "address"
        },
        {
          "indexed": false,
          "internalType": "bool",
          "name": "approved",
          "type": "bool"
        }
      ],
      "name": "ApprovalForAll",
      "type": "event"
    },
    {
      "anonymous": false,
      "inputs": [
        {
          "indexed": false,
          "internalType": "uint256",
          "name": "id",
          "type": "uint256"
        },
        {
          "indexed": false,
          "internalType": "string",
          "name": "tokenURI",
          "type": "string"
        }
      ],
      "name": "NewPlanet",
      "type": "event"
    },
    {
      "anonymous": false,
      "inputs": [
        {
          "indexed": true,
          "internalType": "address",
          "name": "from",
          "type": "address"
        },
        {
          "indexed": true,
          "internalType": "address",
          "name": "to",
          "type": "address"
        },
        {
          "indexed": true,
          "internalType": "uint256",
          "name": "tokenId",
          "type": "uint256"
        }
      ],
      "name": "Transfer",
      "type": "event"
    },
    {
      "inputs": [],
      "name": "POH_ADDRESS",
      "outputs": [
        {
          "internalType": "address",
          "name": "",
          "type": "address"
        }
      ],
      "stateMutability": "view",
      "type": "function",
      "constant": true
    },
    {
      "inputs": [
        {
          "internalType": "address",
          "name": "to",
          "type": "address"
        },
        {
          "internalType": "uint256",
          "name": "tokenId",
          "type": "uint256"
        }
      ],
      "name": "approve",
      "outputs": [],
      "stateMutability": "nonpayable",
      "type": "function"
    },
    {
      "inputs": [
        {
          "internalType": "address",
          "name": "owner",
          "type": "address"
        }
      ],
      "name": "balanceOf",
      "outputs": [
        {
          "internalType": "uint256",
          "name": "",
          "type": "uint256"
        }
      ],
      "stateMutability": "view",
      "type": "function",
      "constant": true
    },
    {
      "inputs": [
        {
          "internalType": "uint256",
          "name": "tokenId",
          "type": "uint256"
        }
      ],
      "name": "getApproved",
      "outputs": [
        {
          "internalType": "address",
          "name": "",
          "type": "address"
        }
      ],
      "stateMutability": "view",
      "type": "function",
      "constant": true
    },
    {
      "inputs": [
        {
          "internalType": "address",
          "name": "owner",
          "type": "address"
        },
        {
          "internalType": "address",
          "name": "operator",
          "type": "address"
        }
      ],
      "name": "isApprovedForAll",
      "outputs": [
        {
          "internalType": "bool",
          "name": "",
          "type": "bool"
        }
      ],
      "stateMutability": "view",
      "type": "function",
      "constant": true
    },
    {
      "inputs": [],
      "name": "name",
      "outputs": [
        {
          "internalType": "string",
          "name": "",
          "type": "string"
        }
      ],
      "stateMutability": "view",
      "type": "function",
      "constant": true
    },
    {
      "inputs": [
        {
          "internalType": "uint256",
          "name": "tokenId",
          "type": "uint256"
        }
      ],
      "name": "ownerOf",
      "outputs": [
        {
          "internalType": "address",
          "name": "",
          "type": "address"
        }
      ],
      "stateMutability": "view",
      "type": "function",
      "constant": true
    },
    {
      "inputs": [
        {
          "internalType": "address",
          "name": "from",
          "type": "address"
        },
        {
          "internalType": "address",
          "name": "to",
          "type": "address"
        },
        {
          "internalType": "uint256",
          "name": "tokenId",
          "type": "uint256"
        }
      ],
      "name": "safeTransferFrom",
      "outputs": [],
      "stateMutability": "nonpayable",
      "type": "function"
    },
    {
      "inputs": [
        {
          "internalType": "address",
          "name": "from",
          "type": "address"
        },
        {
          "internalType": "address",
          "name": "to",
          "type": "address"
        },
        {
          "internalType": "uint256",
          "name": "tokenId",
          "type": "uint256"
        },
        {
          "internalType": "bytes",
          "name": "_data",
          "type": "bytes"
        }
      ],
      "name": "safeTransferFrom",
      "outputs": [],
      "stateMutability": "nonpayable",
      "type": "function"
    },
    {
      "inputs": [
        {
          "internalType": "address",
          "name": "operator",
          "type": "address"
        },
        {
          "internalType": "bool",
          "name": "approved",
          "type": "bool"
        }
      ],
      "name": "setApprovalForAll",
      "outputs": [],
      "stateMutability": "nonpayable",
      "type": "function"
    },
    {
      "inputs": [
        {
          "internalType": "bytes4",
          "name": "interfaceId",
          "type": "bytes4"
        }
      ],
      "name": "supportsInterface",
      "outputs": [
        {
          "internalType": "bool",
          "name": "",
          "type": "bool"
        }
      ],
      "stateMutability": "view",
      "type": "function",
      "constant": true
    },
    {
      "inputs": [],
      "name": "symbol",
      "outputs": [
        {
          "internalType": "string",
          "name": "",
          "type": "string"
        }
      ],
      "stateMutability": "view",
      "type": "function",
      "constant": true
    },
    {
      "inputs": [
        {
          "internalType": "uint256",
          "name": "tokenId",
          "type": "uint256"
        }
      ],
      "name": "tokenURI",
      "outputs": [
        {
          "internalType": "string",
          "name": "",
          "type": "string"
        }
      ],
      "stateMutability": "view",
      "type": "function",
      "constant": true
    },
    {
      "inputs": [],
      "name": "totalPlanets",
      "outputs": [
        {
          "internalType": "uint256",
          "name": "_value",
          "type": "uint256"
        }
      ],
      "stateMutability": "view",
      "type": "function",
      "constant": true
    },
    {
      "inputs": [
        {
          "internalType": "address",
          "name": "from",
          "type": "address"
        },
        {
          "internalType": "address",
          "name": "to",
          "type": "address"
        },
        {
          "internalType": "uint256",
          "name": "tokenId",
          "type": "uint256"
        }
      ],
      "name": "transferFrom",
      "outputs": [],
      "stateMutability": "nonpayable",
      "type": "function"
    },
    {
      "inputs": [
        {
          "internalType": "string",
          "name": "tokenURI",
          "type": "string"
        }
      ],
      "name": "mintPlanet",
      "outputs": [],
      "stateMutability": "payable",
      "type": "function",
      "payable": true
    }
  ],
  "bytecode": "0x60806040523480156200001157600080fd5b506040518060400160405280600981526020017f506c616e65744e465400000000000000000000000000000000000000000000008152506040518060400160405280600481526020017f504e4654000000000000000000000000000000000000000000000000000000008152508160009080519060200190620000969291906200010d565b508060019080519060200190620000af9291906200010d565b505050739b1590a4d36255b3b18bb681062fd159f809009f600a60006101000a81548173ffffffffffffffffffffffffffffffffffffffff021916908373ffffffffffffffffffffffffffffffffffffffff16021790555062000222565b8280546200011b90620001bd565b90600052602060002090601f0160209004810192826200013f57600085556200018b565b82601f106200015a57805160ff19168380011785556200018b565b828001600101855582156200018b579182015b828111156200018a5782518255916020019190600101906200016d565b5b5090506200019a91906200019e565b5090565b5b80821115620001b95760008160009055506001016200019f565b5090565b60006002820490506001821680620001d657607f821691505b60208210811415620001ed57620001ec620001f3565b5b50919050565b7f4e487b7100000000000000000000000000000000000000000000000000000000600052602260045260246000fd5b612c7780620002326000396000f3fe6080604052600436106100f35760003560e01c806395d89b411161008a578063c87b56dd11610059578063c87b56dd1461033a578063ca81f45d14610377578063e9450d60146103a2578063e985e9c5146103be576100f3565b806395d89b4114610292578063a22cb465146102bd578063b5a3d0ce146102e6578063b88d4fde14610311576100f3565b806323b872dd116100c657806323b872dd146101c657806342842e0e146101ef5780636352211e1461021857806370a0823114610255576100f3565b806301ffc9a7146100f857806306fdde0314610135578063081812fc14610160578063095ea7b31461019d575b600080fd5b34801561010457600080fd5b5061011f600480360381019061011a9190611d9a565b6103fb565b60405161012c919061259f565b60405180910390f35b34801561014157600080fd5b5061014a6104dd565b60405161015791906125ba565b60405180910390f35b34801561016c57600080fd5b5061018760048036038101906101829190611e2d565b61056f565b6040516101949190612538565b60405180910390f35b3480156101a957600080fd5b506101c460048036038101906101bf9190611d5e565b6105f4565b005b3480156101d257600080fd5b506101ed60048036038101906101e89190611c58565b61070c565b005b3480156101fb57600080fd5b5061021660048036038101906102119190611c58565b61076c565b005b34801561022457600080fd5b5061023f600480360381019061023a9190611e2d565b61078c565b60405161024c9190612538565b60405180910390f35b34801561026157600080fd5b5061027c60048036038101906102779190611bf3565b61083e565b60405161028991906127dc565b60405180910390f35b34801561029e57600080fd5b506102a76108f6565b6040516102b491906125ba565b60405180910390f35b3480156102c957600080fd5b506102e460048036038101906102df9190611d22565b610988565b005b3480156102f257600080fd5b506102fb610b09565b6040516103089190612538565b60405180910390f35b34801561031d57600080fd5b5061033860048036038101906103339190611ca7565b610b21565b005b34801561034657600080fd5b50610361600480360381019061035c9190611e2d565b610b83565b60405161036e91906125ba565b60405180910390f35b34801561038357600080fd5b5061038c610cd5565b60405161039991906127dc565b60405180910390f35b6103bc60048036038101906103b79190611dec565b610ce1565b005b3480156103ca57600080fd5b506103e560048036038101906103e09190611c1c565b610d5d565b6040516103f2919061259f565b60405180910390f35b60007f80ac58cd000000000000000000000000000000000000000000000000000000007bffffffffffffffffffffffffffffffffffffffffffffffffffffffff1916827bffffffffffffffffffffffffffffffffffffffffffffffffffffffff191614806104c657507f5b5e139f000000000000000000000000000000000000000000000000000000007bffffffffffffffffffffffffffffffffffffffffffffffffffffffff1916827bffffffffffffffffffffffffffffffffffffffffffffffffffffffff1916145b806104d657506104d582610df1565b5b9050919050565b6060600080546104ec90612a6c565b80601f016020809104026020016040519081016040528092919081815260200182805461051890612a6c565b80156105655780601f1061053a57610100808354040283529160200191610565565b820191906000526020600020905b81548152906001019060200180831161054857829003601f168201915b5050505050905090565b600061057a82610e5b565b6105b9576040517f08c379a00000000000000000000000000000000000000000000000000000000081526004016105b09061273c565b60405180910390fd5b6004600083815260200190815260200160002060009054906101000a900473ffffffffffffffffffffffffffffffffffffffff169050919050565b60006105ff8261078c565b90508073ffffffffffffffffffffffffffffffffffffffff168373ffffffffffffffffffffffffffffffffffffffff161415610670576040517f08c379a00000000000000000000000000000000000000000000000000000000081526004016106679061279c565b60405180910390fd5b8073ffffffffffffffffffffffffffffffffffffffff1661068f610ec7565b73ffffffffffffffffffffffffffffffffffffffff1614806106be57506106bd816106b8610ec7565b610d5d565b5b6106fd576040517f08c379a00000000000000000000000000000000000000000000000000000000081526004016106f49061267c565b60405180910390fd5b6107078383610ecf565b505050565b61071d610717610ec7565b82610f88565b61075c576040517f08c379a0000000000000000000000000000000000000000000000000000000008152600401610753906127bc565b60405180910390fd5b610767838383611066565b505050565b61078783838360405180602001604052806000815250610b21565b505050565b6000806002600084815260200190815260200160002060009054906101000a900473ffffffffffffffffffffffffffffffffffffffff169050600073ffffffffffffffffffffffffffffffffffffffff168173ffffffffffffffffffffffffffffffffffffffff161415610835576040517f08c379a000000000000000000000000000000000000000000000000000000000815260040161082c906126bc565b60405180910390fd5b80915050919050565b60008073ffffffffffffffffffffffffffffffffffffffff168273ffffffffffffffffffffffffffffffffffffffff1614156108af576040517f08c379a00000000000000000000000000000000000000000000000000000000081526004016108a69061269c565b60405180910390fd5b600360008373ffffffffffffffffffffffffffffffffffffffff1673ffffffffffffffffffffffffffffffffffffffff168152602001908152602001600020549050919050565b60606001805461090590612a6c565b80601f016020809104026020016040519081016040528092919081815260200182805461093190612a6c565b801561097e5780601f106109535761010080835404028352916020019161097e565b820191906000526020600020905b81548152906001019060200180831161096157829003601f168201915b5050505050905090565b610990610ec7565b73ffffffffffffffffffffffffffffffffffffffff168273ffffffffffffffffffffffffffffffffffffffff1614156109fe576040517f08c379a00000000000000000000000000000000000000000000000000000000081526004016109f59061263c565b60405180910390fd5b8060056000610a0b610ec7565b73ffffffffffffffffffffffffffffffffffffffff1673ffffffffffffffffffffffffffffffffffffffff16815260200190815260200160002060008473ffffffffffffffffffffffffffffffffffffffff1673ffffffffffffffffffffffffffffffffffffffff16815260200190815260200160002060006101000a81548160ff0219169083151502179055508173ffffffffffffffffffffffffffffffffffffffff16610ab8610ec7565b73ffffffffffffffffffffffffffffffffffffffff167f17307eab39ab6107e8899845ad3d59bd9653f200f220920489ca2b5937696c3183604051610afd919061259f565b60405180910390a35050565b739b1590a4d36255b3b18bb681062fd159f809009f81565b610b32610b2c610ec7565b83610f88565b610b71576040517f08c379a0000000000000000000000000000000000000000000000000000000008152600401610b68906127bc565b60405180910390fd5b610b7d848484846112c2565b50505050565b6060610b8e82610e5b565b610bcd576040517f08c379a0000000000000000000000000000000000000000000000000000000008152600401610bc49061271c565b60405180910390fd5b6000600660008481526020019081526020016000208054610bed90612a6c565b80601f0160208091040260200160405190810160405280929190818152602001828054610c1990612a6c565b8015610c665780601f10610c3b57610100808354040283529160200191610c66565b820191906000526020600020905b815481529060010190602001808311610c4957829003601f168201915b505050505090506000610c7761131e565b9050600081511415610c8d578192505050610cd0565b600082511115610cc2578082604051602001610caa929190612514565b60405160208183030381529060405292505050610cd0565b610ccb84611335565b925050505b919050565b60078060000154905081565b655af3107a4000341015610cf457600080fd5b6000610d0060076113dc565b9050610d0c60076113ea565b610d163382611400565b610d20818361141e565b7f6449815989c598352ef187db57130bf0fec093732fcebd097fd00065c4b2270e8183604051610d519291906127f7565b60405180910390a15050565b6000600560008473ffffffffffffffffffffffffffffffffffffffff1673ffffffffffffffffffffffffffffffffffffffff16815260200190815260200160002060008373ffffffffffffffffffffffffffffffffffffffff1673ffffffffffffffffffffffffffffffffffffffff16815260200190815260200160002060009054906101000a900460ff16905092915050565b60007f01ffc9a7000000000000000000000000000000000000000000000000000000007bffffffffffffffffffffffffffffffffffffffffffffffffffffffff1916827bffffffffffffffffffffffffffffffffffffffffffffffffffffffff1916149050919050565b60008073ffffffffffffffffffffffffffffffffffffffff166002600084815260200190815260200160002060009054906101000a900473ffffffffffffffffffffffffffffffffffffffff1673ffffffffffffffffffffffffffffffffffffffff1614159050919050565b600033905090565b816004600083815260200190815260200160002060006101000a81548173ffffffffffffffffffffffffffffffffffffffff021916908373ffffffffffffffffffffffffffffffffffffffff160217905550808273ffffffffffffffffffffffffffffffffffffffff16610f428361078c565b73ffffffffffffffffffffffffffffffffffffffff167f8c5be1e5ebec7d5bd14f71427d1e84f3dd0314c0f7b2291e5b200ac8c7c3b92560405160405180910390a45050565b6000610f9382610e5b565b610fd2576040517f08c379a0000000000000000000000000000000000000000000000000000000008152600401610fc99061265c565b60405180910390fd5b6000610fdd8361078c565b90508073ffffffffffffffffffffffffffffffffffffffff168473ffffffffffffffffffffffffffffffffffffffff16148061104c57508373ffffffffffffffffffffffffffffffffffffffff166110348461056f565b73ffffffffffffffffffffffffffffffffffffffff16145b8061105d575061105c8185610d5d565b5b91505092915050565b8273ffffffffffffffffffffffffffffffffffffffff166110868261078c565b73ffffffffffffffffffffffffffffffffffffffff16146110dc576040517f08c379a00000000000000000000000000000000000000000000000000000000081526004016110d39061275c565b60405180910390fd5b600073ffffffffffffffffffffffffffffffffffffffff168273ffffffffffffffffffffffffffffffffffffffff16141561114c576040517f08c379a00000000000000000000000000000000000000000000000000000000081526004016111439061261c565b60405180910390fd5b611157838383611492565b611162600082610ecf565b6001600360008573ffffffffffffffffffffffffffffffffffffffff1673ffffffffffffffffffffffffffffffffffffffff16815260200190815260200160002060008282546111b29190612982565b925050819055506001600360008473ffffffffffffffffffffffffffffffffffffffff1673ffffffffffffffffffffffffffffffffffffffff168152602001908152602001600020600082825461120991906128fb565b92505081905550816002600083815260200190815260200160002060006101000a81548173ffffffffffffffffffffffffffffffffffffffff021916908373ffffffffffffffffffffffffffffffffffffffff160217905550808273ffffffffffffffffffffffffffffffffffffffff168473ffffffffffffffffffffffffffffffffffffffff167fddf252ad1be2c89b69c2b068fc378daa952ba7f163c4a11628f55a4df523b3ef60405160405180910390a4505050565b6112cd848484611066565b6112d984848484611497565b611318576040517f08c379a000000000000000000000000000000000000000000000000000000000815260040161130f906125dc565b60405180910390fd5b50505050565b606060405180602001604052806000815250905090565b606061134082610e5b565b61137f576040517f08c379a00000000000000000000000000000000000000000000000000000000081526004016113769061277c565b60405180910390fd5b600061138961131e565b905060008151116113a957604051806020016040528060008152506113d4565b806113b38461162e565b6040516020016113c4929190612514565b6040516020818303038152906040525b915050919050565b600081600001549050919050565b6001816000016000828254019250508190555050565b61141a8282604051806020016040528060008152506117db565b5050565b61142782610e5b565b611466576040517f08c379a000000000000000000000000000000000000000000000000000000000815260040161145d906126dc565b60405180910390fd5b8060066000848152602001908152602001600020908051906020019061148d929190611a17565b505050565b505050565b60006114b88473ffffffffffffffffffffffffffffffffffffffff16611836565b15611621578373ffffffffffffffffffffffffffffffffffffffff1663150b7a026114e1610ec7565b8786866040518563ffffffff1660e01b81526004016115039493929190612553565b602060405180830381600087803b15801561151d57600080fd5b505af192505050801561154e57506040513d601f19601f8201168201806040525081019061154b9190611dc3565b60015b6115d1573d806000811461157e576040519150601f19603f3d011682016040523d82523d6000602084013e611583565b606091505b506000815114156115c9576040517f08c379a00000000000000000000000000000000000000000000000000000000081526004016115c0906125dc565b60405180910390fd5b805181602001fd5b63150b7a0260e01b7bffffffffffffffffffffffffffffffffffffffffffffffffffffffff1916817bffffffffffffffffffffffffffffffffffffffffffffffffffffffff191614915050611626565b600190505b949350505050565b60606000821415611676576040518060400160405280600181526020017f300000000000000000000000000000000000000000000000000000000000000081525090506117d6565b600082905060005b600082146116a857808061169190612a9e565b915050600a826116a19190612951565b915061167e565b60008167ffffffffffffffff8111156116ea577f4e487b7100000000000000000000000000000000000000000000000000000000600052604160045260246000fd5b6040519080825280601f01601f19166020018201604052801561171c5781602001600182028036833780820191505090505b5090505b600085146117cf576001826117359190612982565b9150600a856117449190612ae7565b603061175091906128fb565b60f81b81838151811061178c577f4e487b7100000000000000000000000000000000000000000000000000000000600052603260045260246000fd5b60200101907effffffffffffffffffffffffffffffffffffffffffffffffffffffffffffff1916908160001a905350600a856117c89190612951565b9450611720565b8093505050505b919050565b6117e58383611849565b6117f26000848484611497565b611831576040517f08c379a0000000000000000000000000000000000000000000000000000000008152600401611828906125dc565b60405180910390fd5b505050565b600080823b905060008111915050919050565b600073ffffffffffffffffffffffffffffffffffffffff168273ffffffffffffffffffffffffffffffffffffffff1614156118b9576040517f08c379a00000000000000000000000000000000000000000000000000000000081526004016118b0906126fc565b60405180910390fd5b6118c281610e5b565b15611902576040517f08c379a00000000000000000000000000000000000000000000000000000000081526004016118f9906125fc565b60405180910390fd5b61190e60008383611492565b6001600360008473ffffffffffffffffffffffffffffffffffffffff1673ffffffffffffffffffffffffffffffffffffffff168152602001908152602001600020600082825461195e91906128fb565b92505081905550816002600083815260200190815260200160002060006101000a81548173ffffffffffffffffffffffffffffffffffffffff021916908373ffffffffffffffffffffffffffffffffffffffff160217905550808273ffffffffffffffffffffffffffffffffffffffff16600073ffffffffffffffffffffffffffffffffffffffff167fddf252ad1be2c89b69c2b068fc378daa952ba7f163c4a11628f55a4df523b3ef60405160405180910390a45050565b828054611a2390612a6c565b90600052602060002090601f016020900481019282611a455760008555611a8c565b82601f10611a5e57805160ff1916838001178555611a8c565b82800160010185558215611a8c579182015b82811115611a8b578251825591602001919060010190611a70565b5b509050611a999190611a9d565b5090565b5b80821115611ab6576000816000905550600101611a9e565b5090565b6000611acd611ac884612858565b612827565b905082815260208101848484011115611ae557600080fd5b611af0848285612a2a565b509392505050565b6000611b0b611b0684612888565b612827565b905082815260208101848484011115611b2357600080fd5b611b2e848285612a2a565b509392505050565b600081359050611b4581612be5565b92915050565b600081359050611b5a81612bfc565b92915050565b600081359050611b6f81612c13565b92915050565b600081519050611b8481612c13565b92915050565b600082601f830112611b9b57600080fd5b8135611bab848260208601611aba565b91505092915050565b600082601f830112611bc557600080fd5b8135611bd5848260208601611af8565b91505092915050565b600081359050611bed81612c2a565b92915050565b600060208284031215611c0557600080fd5b6000611c1384828501611b36565b91505092915050565b60008060408385031215611c2f57600080fd5b6000611c3d85828601611b36565b9250506020611c4e85828601611b36565b9150509250929050565b600080600060608486031215611c6d57600080fd5b6000611c7b86828701611b36565b9350506020611c8c86828701611b36565b9250506040611c9d86828701611bde565b9150509250925092565b60008060008060808587031215611cbd57600080fd5b6000611ccb87828801611b36565b9450506020611cdc87828801611b36565b9350506040611ced87828801611bde565b925050606085013567ffffffffffffffff811115611d0a57600080fd5b611d1687828801611b8a565b91505092959194509250565b60008060408385031215611d3557600080fd5b6000611d4385828601611b36565b9250506020611d5485828601611b4b565b9150509250929050565b60008060408385031215611d7157600080fd5b6000611d7f85828601611b36565b9250506020611d9085828601611bde565b9150509250929050565b600060208284031215611dac57600080fd5b6000611dba84828501611b60565b91505092915050565b600060208284031215611dd557600080fd5b6000611de384828501611b75565b91505092915050565b600060208284031215611dfe57600080fd5b600082013567ffffffffffffffff811115611e1857600080fd5b611e2484828501611bb4565b91505092915050565b600060208284031215611e3f57600080fd5b6000611e4d84828501611bde565b91505092915050565b611e5f816129b6565b82525050565b611e6e816129c8565b82525050565b6000611e7f826128b8565b611e8981856128ce565b9350611e99818560208601612a39565b611ea281612bd4565b840191505092915050565b6000611eb8826128c3565b611ec281856128df565b9350611ed2818560208601612a39565b611edb81612bd4565b840191505092915050565b6000611ef1826128c3565b611efb81856128f0565b9350611f0b818560208601612a39565b80840191505092915050565b6000611f246032836128df565b91507f4552433732313a207472616e7366657220746f206e6f6e20455243373231526560008301527f63656976657220696d706c656d656e74657200000000000000000000000000006020830152604082019050919050565b6000611f8a601c836128df565b91507f4552433732313a20746f6b656e20616c7265616479206d696e746564000000006000830152602082019050919050565b6000611fca6024836128df565b91507f4552433732313a207472616e7366657220746f20746865207a65726f2061646460008301527f72657373000000000000000000000000000000000000000000000000000000006020830152604082019050919050565b60006120306019836128df565b91507f4552433732313a20617070726f766520746f2063616c6c6572000000000000006000830152602082019050919050565b6000612070602c836128df565b91507f4552433732313a206f70657261746f7220717565727920666f72206e6f6e657860008301527f697374656e7420746f6b656e00000000000000000000000000000000000000006020830152604082019050919050565b60006120d66038836128df565b91507f4552433732313a20617070726f76652063616c6c6572206973206e6f74206f7760008301527f6e6572206e6f7220617070726f76656420666f7220616c6c00000000000000006020830152604082019050919050565b600061213c602a836128df565b91507f4552433732313a2062616c616e636520717565727920666f7220746865207a6560008301527f726f2061646472657373000000000000000000000000000000000000000000006020830152604082019050919050565b60006121a26029836128df565b91507f4552433732313a206f776e657220717565727920666f72206e6f6e657869737460008301527f656e7420746f6b656e00000000000000000000000000000000000000000000006020830152604082019050919050565b6000612208602e836128df565b91507f45524337323155524953746f726167653a2055524920736574206f66206e6f6e60008301527f6578697374656e7420746f6b656e0000000000000000000000000000000000006020830152604082019050919050565b600061226e6020836128df565b91507f4552433732313a206d696e7420746f20746865207a65726f20616464726573736000830152602082019050919050565b60006122ae6031836128df565b91507f45524337323155524953746f726167653a2055524920717565727920666f722060008301527f6e6f6e6578697374656e7420746f6b656e0000000000000000000000000000006020830152604082019050919050565b6000612314602c836128df565b91507f4552433732313a20617070726f76656420717565727920666f72206e6f6e657860008301527f697374656e7420746f6b656e00000000000000000000000000000000000000006020830152604082019050919050565b600061237a6029836128df565b91507f4552433732313a207472616e73666572206f6620746f6b656e2074686174206960008301527f73206e6f74206f776e00000000000000000000000000000000000000000000006020830152604082019050919050565b60006123e0602f836128df565b91507f4552433732314d657461646174613a2055524920717565727920666f72206e6f60008301527f6e6578697374656e7420746f6b656e00000000000000000000000000000000006020830152604082019050919050565b60006124466021836128df565b91507f4552433732313a20617070726f76616c20746f2063757272656e74206f776e6560008301527f72000000000000000000000000000000000000000000000000000000000000006020830152604082019050919050565b60006124ac6031836128df565b91507f4552433732313a207472616e736665722063616c6c6572206973206e6f74206f60008301527f776e6572206e6f7220617070726f7665640000000000000000000000000000006020830152604082019050919050565b61250e81612a20565b82525050565b60006125208285611ee6565b915061252c8284611ee6565b91508190509392505050565b600060208201905061254d6000830184611e56565b92915050565b60006080820190506125686000830187611e56565b6125756020830186611e56565b6125826040830185612505565b81810360608301526125948184611e74565b905095945050505050565b60006020820190506125b46000830184611e65565b92915050565b600060208201905081810360008301526125d48184611ead565b905092915050565b600060208201905081810360008301526125f581611f17565b9050919050565b6000602082019050818103600083015261261581611f7d565b9050919050565b6000602082019050818103600083015261263581611fbd565b9050919050565b6000602082019050818103600083015261265581612023565b9050919050565b6000602082019050818103600083015261267581612063565b9050919050565b60006020820190508181036000830152612695816120c9565b9050919050565b600060208201905081810360008301526126b58161212f565b9050919050565b600060208201905081810360008301526126d581612195565b9050919050565b600060208201905081810360008301526126f5816121fb565b9050919050565b6000602082019050818103600083015261271581612261565b9050919050565b60006020820190508181036000830152612735816122a1565b9050919050565b6000602082019050818103600083015261275581612307565b9050919050565b600060208201905081810360008301526127758161236d565b9050919050565b60006020820190508181036000830152612795816123d3565b9050919050565b600060208201905081810360008301526127b581612439565b9050919050565b600060208201905081810360008301526127d58161249f565b9050919050565b60006020820190506127f16000830184612505565b92915050565b600060408201905061280c6000830185612505565b818103602083015261281e8184611ead565b90509392505050565b6000604051905081810181811067ffffffffffffffff8211171561284e5761284d612ba5565b5b8060405250919050565b600067ffffffffffffffff82111561287357612872612ba5565b5b601f19601f8301169050602081019050919050565b600067ffffffffffffffff8211156128a3576128a2612ba5565b5b601f19601f8301169050602081019050919050565b600081519050919050565b600081519050919050565b600082825260208201905092915050565b600082825260208201905092915050565b600081905092915050565b600061290682612a20565b915061291183612a20565b9250827fffffffffffffffffffffffffffffffffffffffffffffffffffffffffffffffff0382111561294657612945612b18565b5b828201905092915050565b600061295c82612a20565b915061296783612a20565b92508261297757612976612b47565b5b828204905092915050565b600061298d82612a20565b915061299883612a20565b9250828210156129ab576129aa612b18565b5b828203905092915050565b60006129c182612a00565b9050919050565b60008115159050919050565b60007fffffffff0000000000000000000000000000000000000000000000000000000082169050919050565b600073ffffffffffffffffffffffffffffffffffffffff82169050919050565b6000819050919050565b82818337600083830152505050565b60005b83811015612a57578082015181840152602081019050612a3c565b83811115612a66576000848401525b50505050565b60006002820490506001821680612a8457607f821691505b60208210811415612a9857612a97612b76565b5b50919050565b6000612aa982612a20565b91507fffffffffffffffffffffffffffffffffffffffffffffffffffffffffffffffff821415612adc57612adb612b18565b5b600182019050919050565b6000612af282612a20565b9150612afd83612a20565b925082612b0d57612b0c612b47565b5b828206905092915050565b7f4e487b7100000000000000000000000000000000000000000000000000000000600052601160045260246000fd5b7f4e487b7100000000000000000000000000000000000000000000000000000000600052601260045260246000fd5b7f4e487b7100000000000000000000000000000000000000000000000000000000600052602260045260246000fd5b7f4e487b7100000000000000000000000000000000000000000000000000000000600052604160045260246000fd5b6000601f19601f8301169050919050565b612bee816129b6565b8114612bf957600080fd5b50565b612c05816129c8565b8114612c1057600080fd5b50565b612c1c816129d4565b8114612c2757600080fd5b50565b612c3381612a20565b8114612c3e57600080fd5b5056fea2646970667358221220ac55b37ffd1089b63835d226e75b6d548806ad940b10ed580377b05fbed6364864736f6c63430008000033",
  "immutableReferences": {},
  "source": "// contracts/NFTplanet.sol\r\n// SPDX-License-Identifier: MIT\r\n\r\npragma solidity ^0.8.0;\r\n\r\n/// @title Planet creation in NFT \r\n/// @author Danny ba and Aymeric Noel\r\n/// @notice we going to use this contract to mint a planet\r\n \r\nimport \"@openzeppelin/contracts/token/ERC721/extensions/ERC721URIStorage.sol\";\r\nimport \"@openzeppelin/contracts/utils/Counters.sol\";\r\nimport \"./IProofOfHumanity.sol\"; //We using Kleros implementation\r\n\r\n/// @title  Minting the planet \r\n/// @notice using ERC721URIStorage standards  for the NFTPlanet \r\ncontract NFTplanet is ERC721URIStorage {\r\n    using Counters for Counters.Counter;\r\n    Counters.Counter public totalPlanets;\r\n    mapping (address => uint256[]) planetsIds;\r\n    mapping(address => bool) POHOwner;\r\n    event NewPlanet(uint256 id, string tokenURI);\r\n    address public constant POH_ADDRESS = 0x9b1590A4D36255b3b18Bb681062FD159f809009f; // ETH ropsten\r\n    ProofOfHumanity proofContract;\r\n\r\n    constructor() ERC721(\"PlanetNFT\", \"PNFT\") {\r\n        proofContract= ProofOfHumanity(POH_ADDRESS);\r\n    }\r\n\r\n    function mintPlanet(string memory tokenURI) payable public \r\n    { \r\n        require(msg.value >= 0.0001 ether);\r\n\r\n        uint256 newPlanetId = totalPlanets.current();\r\n\r\n        totalPlanets.increment();  \r\n\r\n        _safeMint(msg.sender, newPlanetId);\r\n\r\n        _setTokenURI(newPlanetId, tokenURI);\r\n\r\n        emit NewPlanet(newPlanetId, tokenURI);\r\n        \r\n    }\r\n}\r\n",
  "sourcePath": "C:\\Users\\cesar\\Documents\\GitHub\\Solar-NFT\\contracts\\NFTplanet.sol",
  "compiler": {
    "name": "solc",
    "version": "0.8.0+commit.c7dfd78e.Emscripten.clang"
  },
  "schemaVersion": "3.4.2",
  "updatedAt": "2021-08-31T07:42:40.542Z",
  "networkType": "ethereum",
  "devdoc": {
    "kind": "dev",
    "methods": {
      "approve(address,uint256)": {
        "details": "See {IERC721-approve}."
      },
      "balanceOf(address)": {
        "details": "See {IERC721-balanceOf}."
      },
      "getApproved(uint256)": {
        "details": "See {IERC721-getApproved}."
      },
      "isApprovedForAll(address,address)": {
        "details": "See {IERC721-isApprovedForAll}."
      },
      "name()": {
        "details": "See {IERC721Metadata-name}."
      },
      "ownerOf(uint256)": {
        "details": "See {IERC721-ownerOf}."
      },
      "safeTransferFrom(address,address,uint256)": {
        "details": "See {IERC721-safeTransferFrom}."
      },
      "safeTransferFrom(address,address,uint256,bytes)": {
        "details": "See {IERC721-safeTransferFrom}."
      },
      "setApprovalForAll(address,bool)": {
        "details": "See {IERC721-setApprovalForAll}."
      },
      "supportsInterface(bytes4)": {
        "details": "See {IERC165-supportsInterface}."
      },
      "symbol()": {
        "details": "See {IERC721Metadata-symbol}."
      },
      "tokenURI(uint256)": {
        "details": "See {IERC721Metadata-tokenURI}."
      },
      "transferFrom(address,address,uint256)": {
        "details": "See {IERC721-transferFrom}."
      }
    },
    "title": "Minting the planet ",
    "version": 1
  },
  "userdoc": {
    "kind": "user",
    "methods": {},
    "notice": "using ERC721URIStorage standards  for the NFTPlanet ",
    "version": 1
  }
}