{
  "contractName": "PlanetReact",
  "abi": [
    {
      "anonymous": false,
      "inputs": [
        {
          "indexed": true,
          "internalType": "address",
          "name": "owner",
          "type": "address"
        },
        {
          "indexed": true,
          "internalType": "address",
          "name": "approved",
          "type": "address"
        },
        {
          "indexed": true,
          "internalType": "uint256",
          "name": "tokenId",
          "type": "uint256"
        }
      ],
      "name": "Approval",
      "type": "event"
    },
    {
      "anonymous": false,
      "inputs": [
        {
          "indexed": true,
          "internalType": "address",
          "name": "owner",
          "type": "address"
        },
        {
          "indexed": true,
          "internalType": "address",
          "name": "operator",
          "type": "address"
        },
        {
          "indexed": false,
          "internalType": "bool",
          "name": "approved",
          "type": "bool"
        }
      ],
      "name": "ApprovalForAll",
      "type": "event"
    },
    {
      "anonymous": false,
      "inputs": [
        {
          "indexed": false,
          "internalType": "uint256",
          "name": "planetId",
          "type": "uint256"
        },
        {
          "indexed": false,
          "internalType": "address",
          "name": "owner",
          "type": "address"
        },
        {
          "indexed": false,
          "internalType": "address",
          "name": "nftAddress",
          "type": "address"
        },
        {
          "indexed": false,
          "internalType": "uint256",
          "name": "nftId",
          "type": "uint256"
        }
      ],
      "name": "NFTadded",
      "type": "event"
    },
    {
      "anonymous": false,
      "inputs": [
        {
          "indexed": false,
          "internalType": "uint256",
          "name": "id",
          "type": "uint256"
        },
        {
          "indexed": false,
          "internalType": "uint256",
          "name": "nbSlots",
          "type": "uint256"
        }
      ],
      "name": "NewPlanet",
      "type": "event"
    },
    {
      "anonymous": false,
      "inputs": [
        {
          "indexed": true,
          "internalType": "address",
          "name": "from",
          "type": "address"
        },
        {
          "indexed": true,
          "internalType": "address",
          "name": "to",
          "type": "address"
        },
        {
          "indexed": true,
          "internalType": "uint256",
          "name": "tokenId",
          "type": "uint256"
        }
      ],
      "name": "Transfer",
      "type": "event"
    },
    {
      "anonymous": false,
      "inputs": [
        {
          "indexed": false,
          "internalType": "uint256",
          "name": "planetId",
          "type": "uint256"
        },
        {
          "indexed": false,
          "internalType": "address",
          "name": "owner",
          "type": "address"
        }
      ],
      "name": "slotAdded",
      "type": "event"
    },
    {
      "inputs": [
        {
          "internalType": "uint256",
          "name": "",
          "type": "uint256"
        }
      ],
      "name": "allPlanets",
      "outputs": [
        {
          "internalType": "string",
          "name": "name",
          "type": "string"
        },
        {
          "internalType": "uint256",
          "name": "PlanetId",
          "type": "uint256"
        },
        {
          "internalType": "address",
          "name": "owner",
          "type": "address"
        },
        {
          "internalType": "uint256",
          "name": "slots",
          "type": "uint256"
        },
        {
          "internalType": "uint256",
          "name": "nftCounter",
          "type": "uint256"
        }
      ],
      "stateMutability": "view",
      "type": "function",
      "constant": true
    },
    {
      "inputs": [
        {
          "internalType": "address",
          "name": "to",
          "type": "address"
        },
        {
          "internalType": "uint256",
          "name": "tokenId",
          "type": "uint256"
        }
      ],
      "name": "approve",
      "outputs": [],
      "stateMutability": "nonpayable",
      "type": "function"
    },
    {
      "inputs": [
        {
          "internalType": "address",
          "name": "owner",
          "type": "address"
        }
      ],
      "name": "balanceOf",
      "outputs": [
        {
          "internalType": "uint256",
          "name": "",
          "type": "uint256"
        }
      ],
      "stateMutability": "view",
      "type": "function",
      "constant": true
    },
    {
      "inputs": [
        {
          "internalType": "uint256",
          "name": "tokenId",
          "type": "uint256"
        }
      ],
      "name": "getApproved",
      "outputs": [
        {
          "internalType": "address",
          "name": "",
          "type": "address"
        }
      ],
      "stateMutability": "view",
      "type": "function",
      "constant": true
    },
    {
      "inputs": [
        {
          "internalType": "address",
          "name": "owner",
          "type": "address"
        },
        {
          "internalType": "address",
          "name": "operator",
          "type": "address"
        }
      ],
      "name": "isApprovedForAll",
      "outputs": [
        {
          "internalType": "bool",
          "name": "",
          "type": "bool"
        }
      ],
      "stateMutability": "view",
      "type": "function",
      "constant": true
    },
    {
      "inputs": [
        {
          "internalType": "string",
          "name": "tokenURI",
          "type": "string"
        },
        {
          "internalType": "string",
          "name": "name",
          "type": "string"
        }
      ],
      "name": "mintPlanet",
      "outputs": [],
      "stateMutability": "payable",
      "type": "function",
      "payable": true
    },
    {
      "inputs": [],
      "name": "name",
      "outputs": [
        {
          "internalType": "string",
          "name": "",
          "type": "string"
        }
      ],
      "stateMutability": "view",
      "type": "function",
      "constant": true
    },
    {
      "inputs": [
        {
          "internalType": "uint256",
          "name": "tokenId",
          "type": "uint256"
        }
      ],
      "name": "ownerOf",
      "outputs": [
        {
          "internalType": "address",
          "name": "",
          "type": "address"
        }
      ],
      "stateMutability": "view",
      "type": "function",
      "constant": true
    },
    {
      "inputs": [
        {
          "internalType": "address",
          "name": "from",
          "type": "address"
        },
        {
          "internalType": "address",
          "name": "to",
          "type": "address"
        },
        {
          "internalType": "uint256",
          "name": "tokenId",
          "type": "uint256"
        }
      ],
      "name": "safeTransferFrom",
      "outputs": [],
      "stateMutability": "nonpayable",
      "type": "function"
    },
    {
      "inputs": [
        {
          "internalType": "address",
          "name": "from",
          "type": "address"
        },
        {
          "internalType": "address",
          "name": "to",
          "type": "address"
        },
        {
          "internalType": "uint256",
          "name": "tokenId",
          "type": "uint256"
        },
        {
          "internalType": "bytes",
          "name": "_data",
          "type": "bytes"
        }
      ],
      "name": "safeTransferFrom",
      "outputs": [],
      "stateMutability": "nonpayable",
      "type": "function"
    },
    {
      "inputs": [
        {
          "internalType": "address",
          "name": "operator",
          "type": "address"
        },
        {
          "internalType": "bool",
          "name": "approved",
          "type": "bool"
        }
      ],
      "name": "setApprovalForAll",
      "outputs": [],
      "stateMutability": "nonpayable",
      "type": "function"
    },
    {
      "inputs": [
        {
          "internalType": "bytes4",
          "name": "interfaceId",
          "type": "bytes4"
        }
      ],
      "name": "supportsInterface",
      "outputs": [
        {
          "internalType": "bool",
          "name": "",
          "type": "bool"
        }
      ],
      "stateMutability": "view",
      "type": "function",
      "constant": true
    },
    {
      "inputs": [],
      "name": "symbol",
      "outputs": [
        {
          "internalType": "string",
          "name": "",
          "type": "string"
        }
      ],
      "stateMutability": "view",
      "type": "function",
      "constant": true
    },
    {
      "inputs": [
        {
          "internalType": "uint256",
          "name": "tokenId",
          "type": "uint256"
        }
      ],
      "name": "tokenURI",
      "outputs": [
        {
          "internalType": "string",
          "name": "",
          "type": "string"
        }
      ],
      "stateMutability": "view",
      "type": "function",
      "constant": true
    },
    {
      "inputs": [],
      "name": "totalPlanets",
      "outputs": [
        {
          "internalType": "uint256",
          "name": "_value",
          "type": "uint256"
        }
      ],
      "stateMutability": "view",
      "type": "function",
      "constant": true
    },
    {
      "inputs": [
        {
          "internalType": "address",
          "name": "from",
          "type": "address"
        },
        {
          "internalType": "address",
          "name": "to",
          "type": "address"
        },
        {
          "internalType": "uint256",
          "name": "tokenId",
          "type": "uint256"
        }
      ],
      "name": "transferFrom",
      "outputs": [],
      "stateMutability": "nonpayable",
      "type": "function"
    },
    {
      "inputs": [
        {
          "internalType": "contract ERC721",
          "name": "nftContract",
          "type": "address"
        },
        {
          "internalType": "uint256",
          "name": "tokenId",
          "type": "uint256"
        },
        {
          "internalType": "uint256",
          "name": "planetId",
          "type": "uint256"
        }
      ],
      "name": "addNFT",
      "outputs": [],
      "stateMutability": "nonpayable",
      "type": "function"
    }
  ],
  "bytecode": "0x60806040523480156200001157600080fd5b506040518060400160405280600981526020017f506c616e65744e465400000000000000000000000000000000000000000000008152506040518060400160405280600481526020017f504e465400000000000000000000000000000000000000000000000000000000815250816000908051906020019062000096929190620000b8565b508060019080519060200190620000af929190620000b8565b505050620001cd565b828054620000c69062000168565b90600052602060002090601f016020900481019282620000ea576000855562000136565b82601f106200010557805160ff191683800117855562000136565b8280016001018555821562000136579182015b828111156200013557825182559160200191906001019062000118565b5b50905062000145919062000149565b5090565b5b80821115620001645760008160009055506001016200014a565b5090565b600060028204905060018216806200018157607f821691505b602082108114156200019857620001976200019e565b5b50919050565b7f4e487b7100000000000000000000000000000000000000000000000000000000600052602260045260246000fd5b61326780620001dd6000396000f3fe6080604052600436106100fe5760003560e01c80636352211e11610095578063a22cb46511610064578063a22cb4651461034e578063b88d4fde14610377578063c87b56dd146103a0578063ca81f45d146103dd578063e985e9c514610408576100fe565b80636352211e1461028d5780636c058483146102ca57806370a08231146102e657806395d89b4114610323576100fe565b8063095ea7b3116100d1578063095ea7b3146101d15780630c57e2d9146101fa57806323b872dd1461023b57806342842e0e14610264576100fe565b806301ffc9a71461010357806306fdde0314610140578063081812fc1461016b57806308cfdc37146101a8575b600080fd5b34801561010f57600080fd5b5061012a6004803603810190610125919061224f565b610445565b6040516101379190612ace565b60405180910390f35b34801561014c57600080fd5b50610155610527565b6040516101629190612ae9565b60405180910390f35b34801561017757600080fd5b50610192600480360381019061018d919061235c565b6105b9565b60405161019f9190612a67565b60405180910390f35b3480156101b457600080fd5b506101cf60048036038101906101ca91906122a1565b61063e565b005b3480156101dd57600080fd5b506101f860048036038101906101f39190612213565b61094a565b005b34801561020657600080fd5b50610221600480360381019061021c919061235c565b610a62565b604051610232959493929190612b0b565b60405180910390f35b34801561024757600080fd5b50610262600480360381019061025d919061210d565b610b40565b005b34801561027057600080fd5b5061028b6004803603810190610286919061210d565b610ba0565b005b34801561029957600080fd5b506102b460048036038101906102af919061235c565b610bc0565b6040516102c19190612a67565b60405180910390f35b6102e460048036038101906102df91906122f0565b610c72565b005b3480156102f257600080fd5b5061030d600480360381019061030891906120a8565b610deb565b60405161031a9190612d65565b60405180910390f35b34801561032f57600080fd5b50610338610ea3565b6040516103459190612ae9565b60405180910390f35b34801561035a57600080fd5b50610375600480360381019061037091906121d7565b610f35565b005b34801561038357600080fd5b5061039e6004803603810190610399919061215c565b6110b6565b005b3480156103ac57600080fd5b506103c760048036038101906103c2919061235c565b611118565b6040516103d49190612ae9565b60405180910390f35b3480156103e957600080fd5b506103f261126a565b6040516103ff9190612d65565b60405180910390f35b34801561041457600080fd5b5061042f600480360381019061042a91906120d1565b611276565b60405161043c9190612ace565b60405180910390f35b60007f80ac58cd000000000000000000000000000000000000000000000000000000007bffffffffffffffffffffffffffffffffffffffffffffffffffffffff1916827bffffffffffffffffffffffffffffffffffffffffffffffffffffffff1916148061051057507f5b5e139f000000000000000000000000000000000000000000000000000000007bffffffffffffffffffffffffffffffffffffffffffffffffffffffff1916827bffffffffffffffffffffffffffffffffffffffffffffffffffffffff1916145b80610520575061051f8261130a565b5b9050919050565b60606000805461053690613045565b80601f016020809104026020016040519081016040528092919081815260200182805461056290613045565b80156105af5780601f10610584576101008083540402835291602001916105af565b820191906000526020600020905b81548152906001019060200180831161059257829003601f168201915b5050505050905090565b60006105c482611374565b610603576040517f08c379a00000000000000000000000000000000000000000000000000000000081526004016105fa90612cc5565b60405180910390fd5b6004600083815260200190815260200160002060009054906101000a900473ffffffffffffffffffffffffffffffffffffffff169050919050565b806009600082815260200190815260200160002060020160009054906101000a900473ffffffffffffffffffffffffffffffffffffffff1673ffffffffffffffffffffffffffffffffffffffff163373ffffffffffffffffffffffffffffffffffffffff16146106ad57600080fd5b60006009600084815260200190815260200160002090508060030154816004015410156108ec5780600501600181600181540180825580915050039060005260206000209050506000816004015414156107ec578481600501826004015481548110610742577f4e487b7100000000000000000000000000000000000000000000000000000000600052603260045260246000fd5b906000526020600020906002020160000160006101000a81548173ffffffffffffffffffffffffffffffffffffffff021916908373ffffffffffffffffffffffffffffffffffffffff16021790555083816005018260040154815481106107d2577f4e487b7100000000000000000000000000000000000000000000000000000000600052603260045260246000fd5b9060005260206000209060020201600101819055506108eb565b8481600501600183600401546108029190612ec2565b81548110610839577f4e487b7100000000000000000000000000000000000000000000000000000000600052603260045260246000fd5b906000526020600020906002020160000160006101000a81548173ffffffffffffffffffffffffffffffffffffffff021916908373ffffffffffffffffffffffffffffffffffffffff16021790555083816005016001836004015461089e9190612ec2565b815481106108d5577f4e487b7100000000000000000000000000000000000000000000000000000000600052603260045260246000fd5b9060005260206000209060020201600101819055505b5b80600401600081548092919061090190613077565b91905055507ff8756b5d242d01403816212a248f917a0934cf08ba7b2956466f8af93fbc2cc08333878760405161093b9493929190612d80565b60405180910390a15050505050565b600061095582610bc0565b90508073ffffffffffffffffffffffffffffffffffffffff168373ffffffffffffffffffffffffffffffffffffffff1614156109c6576040517f08c379a00000000000000000000000000000000000000000000000000000000081526004016109bd90612d25565b60405180910390fd5b8073ffffffffffffffffffffffffffffffffffffffff166109e56113e0565b73ffffffffffffffffffffffffffffffffffffffff161480610a145750610a1381610a0e6113e0565b611276565b5b610a53576040517f08c379a0000000000000000000000000000000000000000000000000000000008152600401610a4a90612c05565b60405180910390fd5b610a5d83836113e8565b505050565b6009602052806000526040600020600091509050806000018054610a8590613045565b80601f0160208091040260200160405190810160405280929190818152602001828054610ab190613045565b8015610afe5780601f10610ad357610100808354040283529160200191610afe565b820191906000526020600020905b815481529060010190602001808311610ae157829003601f168201915b5050505050908060010154908060020160009054906101000a900473ffffffffffffffffffffffffffffffffffffffff16908060030154908060040154905085565b610b51610b4b6113e0565b826114a1565b610b90576040517f08c379a0000000000000000000000000000000000000000000000000000000008152600401610b8790612d45565b60405180910390fd5b610b9b83838361157f565b505050565b610bbb838383604051806020016040528060008152506110b6565b505050565b6000806002600084815260200190815260200160002060009054906101000a900473ffffffffffffffffffffffffffffffffffffffff169050600073ffffffffffffffffffffffffffffffffffffffff168173ffffffffffffffffffffffffffffffffffffffff161415610c69576040517f08c379a0000000000000000000000000000000000000000000000000000000008152600401610c6090612c45565b60405180910390fd5b80915050919050565b655af3107a40003410610de7576000610c8b60076117db565b9050610c9760076117e9565b610ca133826117ff565b6000600860003373ffffffffffffffffffffffffffffffffffffffff1673ffffffffffffffffffffffffffffffffffffffff168152602001908152602001600020905080829080600181540180825580915050600190039060005260206000200160009091909190915055610d1682856119cd565b600060096000848152602001908152602001600020905083816000019080519060200190610d45929190611eb7565b50828160010181905550338160020160006101000a81548173ffffffffffffffffffffffffffffffffffffffff021916908373ffffffffffffffffffffffffffffffffffffffff160217905550600581600301819055507f87fa44305202bd01edfc73ba87f227b68fc1830fb4929343ea206f512b5939f3838260030154604051610dd1929190612dc5565b60405180910390a1600081600401819055505050505b5050565b60008073ffffffffffffffffffffffffffffffffffffffff168273ffffffffffffffffffffffffffffffffffffffff161415610e5c576040517f08c379a0000000000000000000000000000000000000000000000000000000008152600401610e5390612c25565b60405180910390fd5b600360008373ffffffffffffffffffffffffffffffffffffffff1673ffffffffffffffffffffffffffffffffffffffff168152602001908152602001600020549050919050565b606060018054610eb290613045565b80601f0160208091040260200160405190810160405280929190818152602001828054610ede90613045565b8015610f2b5780601f10610f0057610100808354040283529160200191610f2b565b820191906000526020600020905b815481529060010190602001808311610f0e57829003601f168201915b5050505050905090565b610f3d6113e0565b73ffffffffffffffffffffffffffffffffffffffff168273ffffffffffffffffffffffffffffffffffffffff161415610fab576040517f08c379a0000000000000000000000000000000000000000000000000000000008152600401610fa290612bc5565b60405180910390fd5b8060056000610fb86113e0565b73ffffffffffffffffffffffffffffffffffffffff1673ffffffffffffffffffffffffffffffffffffffff16815260200190815260200160002060008473ffffffffffffffffffffffffffffffffffffffff1673ffffffffffffffffffffffffffffffffffffffff16815260200190815260200160002060006101000a81548160ff0219169083151502179055508173ffffffffffffffffffffffffffffffffffffffff166110656113e0565b73ffffffffffffffffffffffffffffffffffffffff167f17307eab39ab6107e8899845ad3d59bd9653f200f220920489ca2b5937696c31836040516110aa9190612ace565b60405180910390a35050565b6110c76110c16113e0565b836114a1565b611106576040517f08c379a00000000000000000000000000000000000000000000000000000000081526004016110fd90612d45565b60405180910390fd5b61111284848484611a41565b50505050565b606061112382611374565b611162576040517f08c379a000000000000000000000000000000000000000000000000000000000815260040161115990612ca5565b60405180910390fd5b600060066000848152602001908152602001600020805461118290613045565b80601f01602080910402602001604051908101604052809291908181526020018280546111ae90613045565b80156111fb5780601f106111d0576101008083540402835291602001916111fb565b820191906000526020600020905b8154815290600101906020018083116111de57829003601f168201915b50505050509050600061120c611a9d565b9050600081511415611222578192505050611265565b60008251111561125757808260405160200161123f929190612a43565b60405160208183030381529060405292505050611265565b61126084611ab4565b925050505b919050565b60078060000154905081565b6000600560008473ffffffffffffffffffffffffffffffffffffffff1673ffffffffffffffffffffffffffffffffffffffff16815260200190815260200160002060008373ffffffffffffffffffffffffffffffffffffffff1673ffffffffffffffffffffffffffffffffffffffff16815260200190815260200160002060009054906101000a900460ff16905092915050565b60007f01ffc9a7000000000000000000000000000000000000000000000000000000007bffffffffffffffffffffffffffffffffffffffffffffffffffffffff1916827bffffffffffffffffffffffffffffffffffffffffffffffffffffffff1916149050919050565b60008073ffffffffffffffffffffffffffffffffffffffff166002600084815260200190815260200160002060009054906101000a900473ffffffffffffffffffffffffffffffffffffffff1673ffffffffffffffffffffffffffffffffffffffff1614159050919050565b600033905090565b816004600083815260200190815260200160002060006101000a81548173ffffffffffffffffffffffffffffffffffffffff021916908373ffffffffffffffffffffffffffffffffffffffff160217905550808273ffffffffffffffffffffffffffffffffffffffff1661145b83610bc0565b73ffffffffffffffffffffffffffffffffffffffff167f8c5be1e5ebec7d5bd14f71427d1e84f3dd0314c0f7b2291e5b200ac8c7c3b92560405160405180910390a45050565b60006114ac82611374565b6114eb576040517f08c379a00000000000000000000000000000000000000000000000000000000081526004016114e290612be5565b60405180910390fd5b60006114f683610bc0565b90508073ffffffffffffffffffffffffffffffffffffffff168473ffffffffffffffffffffffffffffffffffffffff16148061156557508373ffffffffffffffffffffffffffffffffffffffff1661154d846105b9565b73ffffffffffffffffffffffffffffffffffffffff16145b8061157657506115758185611276565b5b91505092915050565b8273ffffffffffffffffffffffffffffffffffffffff1661159f82610bc0565b73ffffffffffffffffffffffffffffffffffffffff16146115f5576040517f08c379a00000000000000000000000000000000000000000000000000000000081526004016115ec90612ce5565b60405180910390fd5b600073ffffffffffffffffffffffffffffffffffffffff168273ffffffffffffffffffffffffffffffffffffffff161415611665576040517f08c379a000000000000000000000000000000000000000000000000000000000815260040161165c90612ba5565b60405180910390fd5b611670838383611b5b565b61167b6000826113e8565b6001600360008573ffffffffffffffffffffffffffffffffffffffff1673ffffffffffffffffffffffffffffffffffffffff16815260200190815260200160002060008282546116cb9190612f49565b925050819055506001600360008473ffffffffffffffffffffffffffffffffffffffff1673ffffffffffffffffffffffffffffffffffffffff16815260200190815260200160002060008282546117229190612ec2565b92505081905550816002600083815260200190815260200160002060006101000a81548173ffffffffffffffffffffffffffffffffffffffff021916908373ffffffffffffffffffffffffffffffffffffffff160217905550808273ffffffffffffffffffffffffffffffffffffffff168473ffffffffffffffffffffffffffffffffffffffff167fddf252ad1be2c89b69c2b068fc378daa952ba7f163c4a11628f55a4df523b3ef60405160405180910390a4505050565b600081600001549050919050565b6001816000016000828254019250508190555050565b600073ffffffffffffffffffffffffffffffffffffffff168273ffffffffffffffffffffffffffffffffffffffff16141561186f576040517f08c379a000000000000000000000000000000000000000000000000000000000815260040161186690612c85565b60405180910390fd5b61187881611374565b156118b8576040517f08c379a00000000000000000000000000000000000000000000000000000000081526004016118af90612b85565b60405180910390fd5b6118c460008383611b5b565b6001600360008473ffffffffffffffffffffffffffffffffffffffff1673ffffffffffffffffffffffffffffffffffffffff16815260200190815260200160002060008282546119149190612ec2565b92505081905550816002600083815260200190815260200160002060006101000a81548173ffffffffffffffffffffffffffffffffffffffff021916908373ffffffffffffffffffffffffffffffffffffffff160217905550808273ffffffffffffffffffffffffffffffffffffffff16600073ffffffffffffffffffffffffffffffffffffffff167fddf252ad1be2c89b69c2b068fc378daa952ba7f163c4a11628f55a4df523b3ef60405160405180910390a45050565b6119d682611374565b611a15576040517f08c379a0000000000000000000000000000000000000000000000000000000008152600401611a0c90612c65565b60405180910390fd5b80600660008481526020019081526020016000209080519060200190611a3c929190611eb7565b505050565b611a4c84848461157f565b611a5884848484611b60565b611a97576040517f08c379a0000000000000000000000000000000000000000000000000000000008152600401611a8e90612b65565b60405180910390fd5b50505050565b606060405180602001604052806000815250905090565b6060611abf82611374565b611afe576040517f08c379a0000000000000000000000000000000000000000000000000000000008152600401611af590612d05565b60405180910390fd5b6000611b08611a9d565b90506000815111611b285760405180602001604052806000815250611b53565b80611b3284611cf7565b604051602001611b43929190612a43565b6040516020818303038152906040525b915050919050565b505050565b6000611b818473ffffffffffffffffffffffffffffffffffffffff16611ea4565b15611cea578373ffffffffffffffffffffffffffffffffffffffff1663150b7a02611baa6113e0565b8786866040518563ffffffff1660e01b8152600401611bcc9493929190612a82565b602060405180830381600087803b158015611be657600080fd5b505af1925050508015611c1757506040513d601f19601f82011682018060405250810190611c149190612278565b60015b611c9a573d8060008114611c47576040519150601f19603f3d011682016040523d82523d6000602084013e611c4c565b606091505b50600081511415611c92576040517f08c379a0000000000000000000000000000000000000000000000000000000008152600401611c8990612b65565b60405180910390fd5b805181602001fd5b63150b7a0260e01b7bffffffffffffffffffffffffffffffffffffffffffffffffffffffff1916817bffffffffffffffffffffffffffffffffffffffffffffffffffffffff191614915050611cef565b600190505b949350505050565b60606000821415611d3f576040518060400160405280600181526020017f30000000000000000000000000000000000000000000000000000000000000008152509050611e9f565b600082905060005b60008214611d71578080611d5a90613077565b915050600a82611d6a9190612f18565b9150611d47565b60008167ffffffffffffffff811115611db3577f4e487b7100000000000000000000000000000000000000000000000000000000600052604160045260246000fd5b6040519080825280601f01601f191660200182016040528015611de55781602001600182028036833780820191505090505b5090505b60008514611e9857600182611dfe9190612f49565b9150600a85611e0d91906130c0565b6030611e199190612ec2565b60f81b818381518110611e55577f4e487b7100000000000000000000000000000000000000000000000000000000600052603260045260246000fd5b60200101907effffffffffffffffffffffffffffffffffffffffffffffffffffffffffffff1916908160001a905350600a85611e919190612f18565b9450611de9565b8093505050505b919050565b600080823b905060008111915050919050565b828054611ec390613045565b90600052602060002090601f016020900481019282611ee55760008555611f2c565b82601f10611efe57805160ff1916838001178555611f2c565b82800160010185558215611f2c579182015b82811115611f2b578251825591602001919060010190611f10565b5b509050611f399190611f3d565b5090565b5b80821115611f56576000816000905550600101611f3e565b5090565b6000611f6d611f6884612e1f565b612dee565b905082815260208101848484011115611f8557600080fd5b611f90848285613003565b509392505050565b6000611fab611fa684612e4f565b612dee565b905082815260208101848484011115611fc357600080fd5b611fce848285613003565b509392505050565b600081359050611fe5816131be565b92915050565b600081359050611ffa816131d5565b92915050565b60008135905061200f816131ec565b92915050565b600081519050612024816131ec565b92915050565b600082601f83011261203b57600080fd5b813561204b848260208601611f5a565b91505092915050565b60008135905061206381613203565b92915050565b600082601f83011261207a57600080fd5b813561208a848260208601611f98565b91505092915050565b6000813590506120a28161321a565b92915050565b6000602082840312156120ba57600080fd5b60006120c884828501611fd6565b91505092915050565b600080604083850312156120e457600080fd5b60006120f285828601611fd6565b925050602061210385828601611fd6565b9150509250929050565b60008060006060848603121561212257600080fd5b600061213086828701611fd6565b935050602061214186828701611fd6565b925050604061215286828701612093565b9150509250925092565b6000806000806080858703121561217257600080fd5b600061218087828801611fd6565b945050602061219187828801611fd6565b93505060406121a287828801612093565b925050606085013567ffffffffffffffff8111156121bf57600080fd5b6121cb8782880161202a565b91505092959194509250565b600080604083850312156121ea57600080fd5b60006121f885828601611fd6565b925050602061220985828601611feb565b9150509250929050565b6000806040838503121561222657600080fd5b600061223485828601611fd6565b925050602061224585828601612093565b9150509250929050565b60006020828403121561226157600080fd5b600061226f84828501612000565b91505092915050565b60006020828403121561228a57600080fd5b600061229884828501612015565b91505092915050565b6000806000606084860312156122b657600080fd5b60006122c486828701612054565b93505060206122d586828701612093565b92505060406122e686828701612093565b9150509250925092565b6000806040838503121561230357600080fd5b600083013567ffffffffffffffff81111561231d57600080fd5b61232985828601612069565b925050602083013567ffffffffffffffff81111561234657600080fd5b61235285828601612069565b9150509250929050565b60006020828403121561236e57600080fd5b600061237c84828501612093565b91505092915050565b61238e81612f7d565b82525050565b61239d81612f8f565b82525050565b60006123ae82612e7f565b6123b88185612e95565b93506123c8818560208601613012565b6123d1816131ad565b840191505092915050565b60006123e782612e8a565b6123f18185612ea6565b9350612401818560208601613012565b61240a816131ad565b840191505092915050565b600061242082612e8a565b61242a8185612eb7565b935061243a818560208601613012565b80840191505092915050565b6000612453603283612ea6565b91507f4552433732313a207472616e7366657220746f206e6f6e20455243373231526560008301527f63656976657220696d706c656d656e74657200000000000000000000000000006020830152604082019050919050565b60006124b9601c83612ea6565b91507f4552433732313a20746f6b656e20616c7265616479206d696e746564000000006000830152602082019050919050565b60006124f9602483612ea6565b91507f4552433732313a207472616e7366657220746f20746865207a65726f2061646460008301527f72657373000000000000000000000000000000000000000000000000000000006020830152604082019050919050565b600061255f601983612ea6565b91507f4552433732313a20617070726f766520746f2063616c6c6572000000000000006000830152602082019050919050565b600061259f602c83612ea6565b91507f4552433732313a206f70657261746f7220717565727920666f72206e6f6e657860008301527f697374656e7420746f6b656e00000000000000000000000000000000000000006020830152604082019050919050565b6000612605603883612ea6565b91507f4552433732313a20617070726f76652063616c6c6572206973206e6f74206f7760008301527f6e6572206e6f7220617070726f76656420666f7220616c6c00000000000000006020830152604082019050919050565b600061266b602a83612ea6565b91507f4552433732313a2062616c616e636520717565727920666f7220746865207a6560008301527f726f2061646472657373000000000000000000000000000000000000000000006020830152604082019050919050565b60006126d1602983612ea6565b91507f4552433732313a206f776e657220717565727920666f72206e6f6e657869737460008301527f656e7420746f6b656e00000000000000000000000000000000000000000000006020830152604082019050919050565b6000612737602e83612ea6565b91507f45524337323155524953746f726167653a2055524920736574206f66206e6f6e60008301527f6578697374656e7420746f6b656e0000000000000000000000000000000000006020830152604082019050919050565b600061279d602083612ea6565b91507f4552433732313a206d696e7420746f20746865207a65726f20616464726573736000830152602082019050919050565b60006127dd603183612ea6565b91507f45524337323155524953746f726167653a2055524920717565727920666f722060008301527f6e6f6e6578697374656e7420746f6b656e0000000000000000000000000000006020830152604082019050919050565b6000612843602c83612ea6565b91507f4552433732313a20617070726f76656420717565727920666f72206e6f6e657860008301527f697374656e7420746f6b656e00000000000000000000000000000000000000006020830152604082019050919050565b60006128a9602983612ea6565b91507f4552433732313a207472616e73666572206f6620746f6b656e2074686174206960008301527f73206e6f74206f776e00000000000000000000000000000000000000000000006020830152604082019050919050565b600061290f602f83612ea6565b91507f4552433732314d657461646174613a2055524920717565727920666f72206e6f60008301527f6e6578697374656e7420746f6b656e00000000000000000000000000000000006020830152604082019050919050565b6000612975602183612ea6565b91507f4552433732313a20617070726f76616c20746f2063757272656e74206f776e6560008301527f72000000000000000000000000000000000000000000000000000000000000006020830152604082019050919050565b60006129db603183612ea6565b91507f4552433732313a207472616e736665722063616c6c6572206973206e6f74206f60008301527f776e6572206e6f7220617070726f7665640000000000000000000000000000006020830152604082019050919050565b612a3d81612ff9565b82525050565b6000612a4f8285612415565b9150612a5b8284612415565b91508190509392505050565b6000602082019050612a7c6000830184612385565b92915050565b6000608082019050612a976000830187612385565b612aa46020830186612385565b612ab16040830185612a34565b8181036060830152612ac381846123a3565b905095945050505050565b6000602082019050612ae36000830184612394565b92915050565b60006020820190508181036000830152612b0381846123dc565b905092915050565b600060a0820190508181036000830152612b2581886123dc565b9050612b346020830187612a34565b612b416040830186612385565b612b4e6060830185612a34565b612b5b6080830184612a34565b9695505050505050565b60006020820190508181036000830152612b7e81612446565b9050919050565b60006020820190508181036000830152612b9e816124ac565b9050919050565b60006020820190508181036000830152612bbe816124ec565b9050919050565b60006020820190508181036000830152612bde81612552565b9050919050565b60006020820190508181036000830152612bfe81612592565b9050919050565b60006020820190508181036000830152612c1e816125f8565b9050919050565b60006020820190508181036000830152612c3e8161265e565b9050919050565b60006020820190508181036000830152612c5e816126c4565b9050919050565b60006020820190508181036000830152612c7e8161272a565b9050919050565b60006020820190508181036000830152612c9e81612790565b9050919050565b60006020820190508181036000830152612cbe816127d0565b9050919050565b60006020820190508181036000830152612cde81612836565b9050919050565b60006020820190508181036000830152612cfe8161289c565b9050919050565b60006020820190508181036000830152612d1e81612902565b9050919050565b60006020820190508181036000830152612d3e81612968565b9050919050565b60006020820190508181036000830152612d5e816129ce565b9050919050565b6000602082019050612d7a6000830184612a34565b92915050565b6000608082019050612d956000830187612a34565b612da26020830186612385565b612daf6040830185612385565b612dbc6060830184612a34565b95945050505050565b6000604082019050612dda6000830185612a34565b612de76020830184612a34565b9392505050565b6000604051905081810181811067ffffffffffffffff82111715612e1557612e1461317e565b5b8060405250919050565b600067ffffffffffffffff821115612e3a57612e3961317e565b5b601f19601f8301169050602081019050919050565b600067ffffffffffffffff821115612e6a57612e6961317e565b5b601f19601f8301169050602081019050919050565b600081519050919050565b600081519050919050565b600082825260208201905092915050565b600082825260208201905092915050565b600081905092915050565b6000612ecd82612ff9565b9150612ed883612ff9565b9250827fffffffffffffffffffffffffffffffffffffffffffffffffffffffffffffffff03821115612f0d57612f0c6130f1565b5b828201905092915050565b6000612f2382612ff9565b9150612f2e83612ff9565b925082612f3e57612f3d613120565b5b828204905092915050565b6000612f5482612ff9565b9150612f5f83612ff9565b925082821015612f7257612f716130f1565b5b828203905092915050565b6000612f8882612fd9565b9050919050565b60008115159050919050565b60007fffffffff0000000000000000000000000000000000000000000000000000000082169050919050565b6000612fd282612f7d565b9050919050565b600073ffffffffffffffffffffffffffffffffffffffff82169050919050565b6000819050919050565b82818337600083830152505050565b60005b83811015613030578082015181840152602081019050613015565b8381111561303f576000848401525b50505050565b6000600282049050600182168061305d57607f821691505b602082108114156130715761307061314f565b5b50919050565b600061308282612ff9565b91507fffffffffffffffffffffffffffffffffffffffffffffffffffffffffffffffff8214156130b5576130b46130f1565b5b600182019050919050565b60006130cb82612ff9565b91506130d683612ff9565b9250826130e6576130e5613120565b5b828206905092915050565b7f4e487b7100000000000000000000000000000000000000000000000000000000600052601160045260246000fd5b7f4e487b7100000000000000000000000000000000000000000000000000000000600052601260045260246000fd5b7f4e487b7100000000000000000000000000000000000000000000000000000000600052602260045260246000fd5b7f4e487b7100000000000000000000000000000000000000000000000000000000600052604160045260246000fd5b6000601f19601f8301169050919050565b6131c781612f7d565b81146131d257600080fd5b50565b6131de81612f8f565b81146131e957600080fd5b50565b6131f581612f9b565b811461320057600080fd5b50565b61320c81612fc7565b811461321757600080fd5b50565b61322381612ff9565b811461322e57600080fd5b5056fea2646970667358221220da0826ba3aeb63e256186c2231136e7c72ad229f86cd8a851a7c9b61b5b755fe64736f6c63430008000033",
  "immutableReferences": {},
  "source": "// contracts/PlanetReact.sol\n// SPDX-License-Identifier: MIT\npragma solidity ^0.8.0;\n\nimport \"./NFTplanet.sol\";\nimport \"@openzeppelin/contracts/token/ERC721/ERC721.sol\";\n\ncontract PlanetReact is NFTplanet{\n    event NFTadded(uint256 planetId, address owner, address nftAddress, uint256 nftId);\n    event slotAdded(uint256 planetId, address owner);\n\n    modifier onlyPlanetOwner(uint256 planetId){\n        require(msg.sender==allPlanets[planetId].owner);\n        _;\n    }\n\n    /// @notice add an NFT in the planet canvas (5 available)\n    function addNFT(ERC721 nftContract, uint256 tokenId, uint256 planetId) public onlyPlanetOwner(planetId){\n        // require(msg.sender==nftContract.ownerOf(tokenId));\n        Planet storage currentPlanet = allPlanets[planetId];\n        \n            if(currentPlanet.nftCounter < currentPlanet.slots ){\n                currentPlanet.allNfts.push();\n\n                if(currentPlanet.nftCounter==0){\n                        currentPlanet.allNfts[currentPlanet.nftCounter].contractAddress=address(nftContract);\n                        currentPlanet.allNfts[currentPlanet.nftCounter].id=tokenId;\n                    }\n                    else{\n                        currentPlanet.allNfts[currentPlanet.nftCounter+1].contractAddress=address(nftContract);\n                        currentPlanet.allNfts[currentPlanet.nftCounter+1].id=tokenId;\n                    }                \n                     \n            }\n               \n                currentPlanet.nftCounter++;               \n                emit NFTadded(planetId, msg.sender,address(nftContract), tokenId);\n    }\n\n\n    /// @notice after winning a game we have the choice to add slot +1\n    function addSlot(uint256 planetId) private{\n        Planet storage currentPlanet = allPlanets[planetId];\n        currentPlanet.allNfts.push();\n        emit slotAdded(planetId, msg.sender);\n\n    }\n\n    // /// @notice trasnfer planets or nft's\n    // /// @dev Explain to a developer any extra details\n    // /// @param Documents a parameter just like in doxygen (must be followed by parameter name)\n    // /// @return Documents the return variables of a contracts function state variable\n    // function transfer() {}\n\n    // function removeNFT(ERC721 nftContract, uint256 tokenId, uint256 planetId) public onlyPlanetOwner(planetId) {\n    //     Planet storage currentPlanet = allPlanets[planetId];\n    //     for (uint256 index = 0; index < currentPlanet.allNfts.length; index++) {\n    //         if(currentPlanet.allNfts[index].contractAddress == address(nftContract) && currentPlanet.allNfts[index].id == tokenId){\n    //             currentPlanet.allNfts[index].contractAddress=address(0);\n    //             break;\n    //         }\n    //     }\n    //     currentPlanet.nftCounter--;   \n    // }\n\n/*\n    /// @notice decalre a war to another user that have all of his 5 slots \n    /// @param Documents a parameter just like in doxygen (must be followed by parameter name)\n    /// @return Documents the return variables of a contracts function state variable\n    function declareWar() {}\n\n    /// @notice decline \n    /// @dev Explain to a developer any extra details\n    /// @param Documents a parameter just like in doxygen (must be followed by parameter name)\n    /// @return Documents the return variables of a contracts function state variable\n    function declineWar() {}\n\n    /// @notice accept\n    /// @param Documents a parameter just like in doxygen (must be followed by parameter name)\n    /// @return Documents the return variables of a contracts function state variable\n    function acceptWar() {}\n\n    /// @notice give the choice of add slot and make his planet bigger or have a new planet randomly created\n    /// @dev Explain to a developer any extra details\n    /// @param Documents a parameter just like in doxygen (must be followed by parameter name)\n    /// @return Documents the return variables of a contracts function state variable\n    function choice() {}\n    */\n}\n\n",
  "sourcePath": "/Users/nikitaterekhov/Projects/ETHCC/Solar-NFT/contracts/PlanetReact.sol",
  "compiler": {
    "name": "solc",
    "version": "0.8.0+commit.c7dfd78e.Emscripten.clang"
  },
  "schemaVersion": "3.4.1",
  "updatedAt": "2021-07-25T10:58:02.777Z",
  "networkType": "ethereum",
  "devdoc": {
    "kind": "dev",
    "methods": {
      "approve(address,uint256)": {
        "details": "See {IERC721-approve}."
      },
      "balanceOf(address)": {
        "details": "See {IERC721-balanceOf}."
      },
      "getApproved(uint256)": {
        "details": "See {IERC721-getApproved}."
      },
      "isApprovedForAll(address,address)": {
        "details": "See {IERC721-isApprovedForAll}."
      },
      "name()": {
        "details": "See {IERC721Metadata-name}."
      },
      "ownerOf(uint256)": {
        "details": "See {IERC721-ownerOf}."
      },
      "safeTransferFrom(address,address,uint256)": {
        "details": "See {IERC721-safeTransferFrom}."
      },
      "safeTransferFrom(address,address,uint256,bytes)": {
        "details": "See {IERC721-safeTransferFrom}."
      },
      "setApprovalForAll(address,bool)": {
        "details": "See {IERC721-setApprovalForAll}."
      },
      "supportsInterface(bytes4)": {
        "details": "See {IERC165-supportsInterface}."
      },
      "symbol()": {
        "details": "See {IERC721Metadata-symbol}."
      },
      "tokenURI(uint256)": {
        "details": "See {IERC721Metadata-tokenURI}."
      },
      "transferFrom(address,address,uint256)": {
        "details": "See {IERC721-transferFrom}."
      }
    },
    "version": 1
  },
  "userdoc": {
    "kind": "user",
    "methods": {
      "addNFT(address,uint256,uint256)": {
        "notice": "add an NFT in the planet canvas (5 available)"
      }
    },
    "version": 1
  }
}