{
  "contractName": "PlanetReact",
  "abi": [
    {
      "anonymous": false,
      "inputs": [
        {
          "indexed": true,
          "internalType": "address",
          "name": "owner",
          "type": "address"
        },
        {
          "indexed": true,
          "internalType": "address",
          "name": "approved",
          "type": "address"
        },
        {
          "indexed": true,
          "internalType": "uint256",
          "name": "tokenId",
          "type": "uint256"
        }
      ],
      "name": "Approval",
      "type": "event"
    },
    {
      "anonymous": false,
      "inputs": [
        {
          "indexed": true,
          "internalType": "address",
          "name": "owner",
          "type": "address"
        },
        {
          "indexed": true,
          "internalType": "address",
          "name": "operator",
          "type": "address"
        },
        {
          "indexed": false,
          "internalType": "bool",
          "name": "approved",
          "type": "bool"
        }
      ],
      "name": "ApprovalForAll",
      "type": "event"
    },
    {
      "anonymous": false,
      "inputs": [],
      "name": "NFTadded",
      "type": "event"
    },
    {
      "anonymous": false,
      "inputs": [
        {
          "indexed": false,
          "internalType": "uint256",
          "name": "id",
          "type": "uint256"
        }
      ],
      "name": "NewPlanet",
      "type": "event"
    },
    {
      "anonymous": false,
      "inputs": [
        {
          "indexed": true,
          "internalType": "address",
          "name": "from",
          "type": "address"
        },
        {
          "indexed": true,
          "internalType": "address",
          "name": "to",
          "type": "address"
        },
        {
          "indexed": true,
          "internalType": "uint256",
          "name": "tokenId",
          "type": "uint256"
        }
      ],
      "name": "Transfer",
      "type": "event"
    },
    {
      "anonymous": false,
      "inputs": [],
      "name": "slotAdded",
      "type": "event"
    },
    {
      "inputs": [],
      "name": "POH_ADDRESS",
      "outputs": [
        {
          "internalType": "address",
          "name": "",
          "type": "address"
        }
      ],
      "stateMutability": "view",
      "type": "function"
    },
    {
      "inputs": [
        {
          "internalType": "uint256",
          "name": "",
          "type": "uint256"
        }
      ],
      "name": "allPlanets",
      "outputs": [
        {
          "internalType": "string",
          "name": "name",
          "type": "string"
        },
        {
          "internalType": "uint256",
          "name": "PlanetId",
          "type": "uint256"
        },
        {
          "internalType": "address",
          "name": "owner",
          "type": "address"
        },
        {
          "internalType": "uint256",
          "name": "slots",
          "type": "uint256"
        },
        {
          "internalType": "uint256",
          "name": "nftCounter",
          "type": "uint256"
        }
      ],
      "stateMutability": "view",
      "type": "function"
    },
    {
      "inputs": [
        {
          "internalType": "address",
          "name": "to",
          "type": "address"
        },
        {
          "internalType": "uint256",
          "name": "tokenId",
          "type": "uint256"
        }
      ],
      "name": "approve",
      "outputs": [],
      "stateMutability": "nonpayable",
      "type": "function"
    },
    {
      "inputs": [
        {
          "internalType": "address",
          "name": "owner",
          "type": "address"
        }
      ],
      "name": "balanceOf",
      "outputs": [
        {
          "internalType": "uint256",
          "name": "",
          "type": "uint256"
        }
      ],
      "stateMutability": "view",
      "type": "function"
    },
    {
      "inputs": [
        {
          "internalType": "uint256",
          "name": "tokenId",
          "type": "uint256"
        }
      ],
      "name": "getApproved",
      "outputs": [
        {
          "internalType": "address",
          "name": "",
          "type": "address"
        }
      ],
      "stateMutability": "view",
      "type": "function"
    },
    {
      "inputs": [
        {
          "internalType": "address",
          "name": "owner",
          "type": "address"
        },
        {
          "internalType": "address",
          "name": "operator",
          "type": "address"
        }
      ],
      "name": "isApprovedForAll",
      "outputs": [
        {
          "internalType": "bool",
          "name": "",
          "type": "bool"
        }
      ],
      "stateMutability": "view",
      "type": "function"
    },
    {
      "inputs": [
        {
          "internalType": "string",
          "name": "tokenURI",
          "type": "string"
        },
        {
          "internalType": "string",
          "name": "name",
          "type": "string"
        }
      ],
      "name": "mintPlanet",
      "outputs": [],
      "stateMutability": "payable",
      "type": "function"
    },
    {
      "inputs": [],
      "name": "name",
      "outputs": [
        {
          "internalType": "string",
          "name": "",
          "type": "string"
        }
      ],
      "stateMutability": "view",
      "type": "function"
    },
    {
      "inputs": [
        {
          "internalType": "uint256",
          "name": "tokenId",
          "type": "uint256"
        }
      ],
      "name": "ownerOf",
      "outputs": [
        {
          "internalType": "address",
          "name": "",
          "type": "address"
        }
      ],
      "stateMutability": "view",
      "type": "function"
    },
    {
      "inputs": [
        {
          "internalType": "address",
          "name": "from",
          "type": "address"
        },
        {
          "internalType": "address",
          "name": "to",
          "type": "address"
        },
        {
          "internalType": "uint256",
          "name": "tokenId",
          "type": "uint256"
        }
      ],
      "name": "safeTransferFrom",
      "outputs": [],
      "stateMutability": "nonpayable",
      "type": "function"
    },
    {
      "inputs": [
        {
          "internalType": "address",
          "name": "from",
          "type": "address"
        },
        {
          "internalType": "address",
          "name": "to",
          "type": "address"
        },
        {
          "internalType": "uint256",
          "name": "tokenId",
          "type": "uint256"
        },
        {
          "internalType": "bytes",
          "name": "_data",
          "type": "bytes"
        }
      ],
      "name": "safeTransferFrom",
      "outputs": [],
      "stateMutability": "nonpayable",
      "type": "function"
    },
    {
      "inputs": [
        {
          "internalType": "address",
          "name": "operator",
          "type": "address"
        },
        {
          "internalType": "bool",
          "name": "approved",
          "type": "bool"
        }
      ],
      "name": "setApprovalForAll",
      "outputs": [],
      "stateMutability": "nonpayable",
      "type": "function"
    },
    {
      "inputs": [
        {
          "internalType": "bytes4",
          "name": "interfaceId",
          "type": "bytes4"
        }
      ],
      "name": "supportsInterface",
      "outputs": [
        {
          "internalType": "bool",
          "name": "",
          "type": "bool"
        }
      ],
      "stateMutability": "view",
      "type": "function"
    },
    {
      "inputs": [],
      "name": "symbol",
      "outputs": [
        {
          "internalType": "string",
          "name": "",
          "type": "string"
        }
      ],
      "stateMutability": "view",
      "type": "function"
    },
    {
      "inputs": [
        {
          "internalType": "uint256",
          "name": "tokenId",
          "type": "uint256"
        }
      ],
      "name": "tokenURI",
      "outputs": [
        {
          "internalType": "string",
          "name": "",
          "type": "string"
        }
      ],
      "stateMutability": "view",
      "type": "function"
    },
    {
      "inputs": [],
      "name": "totalPlanets",
      "outputs": [
        {
          "internalType": "uint256",
          "name": "_value",
          "type": "uint256"
        }
      ],
      "stateMutability": "view",
      "type": "function"
    },
    {
      "inputs": [
        {
          "internalType": "address",
          "name": "from",
          "type": "address"
        },
        {
          "internalType": "address",
          "name": "to",
          "type": "address"
        },
        {
          "internalType": "uint256",
          "name": "tokenId",
          "type": "uint256"
        }
      ],
      "name": "transferFrom",
      "outputs": [],
      "stateMutability": "nonpayable",
      "type": "function"
    },
    {
      "inputs": [
        {
          "internalType": "contract ERC721",
          "name": "nftContract",
          "type": "address"
        },
        {
          "internalType": "uint256",
          "name": "tokenId",
          "type": "uint256"
        },
        {
          "internalType": "uint256",
          "name": "planetId",
          "type": "uint256"
        }
      ],
      "name": "addNFT",
      "outputs": [],
      "stateMutability": "nonpayable",
      "type": "function"
    }
  ],
  "bytecode": "0x60806040523480156200001157600080fd5b506040518060400160405280600981526020017f506c616e65744e465400000000000000000000000000000000000000000000008152506040518060400160405280600481526020017f504e4654000000000000000000000000000000000000000000000000000000008152508160009080519060200190620000969291906200010d565b508060019080519060200190620000af9291906200010d565b50505073c5e9ddebb09cd64dfacab4011a0d5cedaf7c9bdb600b60006101000a81548173ffffffffffffffffffffffffffffffffffffffff021916908373ffffffffffffffffffffffffffffffffffffffff16021790555062000222565b8280546200011b90620001bd565b90600052602060002090601f0160209004810192826200013f57600085556200018b565b82601f106200015a57805160ff19168380011785556200018b565b828001600101855582156200018b579182015b828111156200018a5782518255916020019190600101906200016d565b5b5090506200019a91906200019e565b5090565b5b80821115620001b95760008160009055506001016200019f565b5090565b60006002820490506001821680620001d657607f821691505b60208210811415620001ed57620001ec620001f3565b5b50919050565b7f4e487b7100000000000000000000000000000000000000000000000000000000600052602260045260246000fd5b61363180620002326000396000f3fe6080604052600436106101095760003560e01c80636c05848311610095578063b5a3d0ce11610064578063b5a3d0ce14610382578063b88d4fde146103ad578063c87b56dd146103d6578063ca81f45d14610413578063e985e9c51461043e57610109565b80636c058483146102d557806370a08231146102f157806395d89b411461032e578063a22cb4651461035957610109565b8063095ea7b3116100dc578063095ea7b3146101dc5780630c57e2d91461020557806323b872dd1461024657806342842e0e1461026f5780636352211e1461029857610109565b806301ffc9a71461010e57806306fdde031461014b578063081812fc1461017657806308cfdc37146101b3575b600080fd5b34801561011a57600080fd5b5061013560048036038101906101309190612687565b61047b565b6040516101429190612f06565b60405180910390f35b34801561015757600080fd5b5061016061055d565b60405161016d9190612f21565b60405180910390f35b34801561018257600080fd5b5061019d60048036038101906101989190612794565b6105ef565b6040516101aa9190612e9f565b60405180910390f35b3480156101bf57600080fd5b506101da60048036038101906101d591906126d9565b610674565b005b3480156101e857600080fd5b5061020360048036038101906101fe9190612622565b610a2f565b005b34801561021157600080fd5b5061022c60048036038101906102279190612794565b610b47565b60405161023d959493929190612f43565b60405180910390f35b34801561025257600080fd5b5061026d6004803603810190610268919061251c565b610c25565b005b34801561027b57600080fd5b506102966004803603810190610291919061251c565b610c85565b005b3480156102a457600080fd5b506102bf60048036038101906102ba9190612794565b610ca5565b6040516102cc9190612e9f565b60405180910390f35b6102ef60048036038101906102ea9190612728565b610d57565b005b3480156102fd57600080fd5b506103186004803603810190610313919061248e565b61118f565b604051610325919061319d565b60405180910390f35b34801561033a57600080fd5b50610343611247565b6040516103509190612f21565b60405180910390f35b34801561036557600080fd5b50610380600480360381019061037b91906125e6565b6112d9565b005b34801561038e57600080fd5b5061039761145a565b6040516103a49190612e9f565b60405180910390f35b3480156103b957600080fd5b506103d460048036038101906103cf919061256b565b611472565b005b3480156103e257600080fd5b506103fd60048036038101906103f89190612794565b6114d4565b60405161040a9190612f21565b60405180910390f35b34801561041f57600080fd5b50610428611626565b604051610435919061319d565b60405180910390f35b34801561044a57600080fd5b50610465600480360381019061046091906124e0565b611632565b6040516104729190612f06565b60405180910390f35b60007f80ac58cd000000000000000000000000000000000000000000000000000000007bffffffffffffffffffffffffffffffffffffffffffffffffffffffff1916827bffffffffffffffffffffffffffffffffffffffffffffffffffffffff1916148061054657507f5b5e139f000000000000000000000000000000000000000000000000000000007bffffffffffffffffffffffffffffffffffffffffffffffffffffffff1916827bffffffffffffffffffffffffffffffffffffffffffffffffffffffff1916145b806105565750610555826116c6565b5b9050919050565b60606000805461056c9061340f565b80601f01602080910402602001604051908101604052809291908181526020018280546105989061340f565b80156105e55780601f106105ba576101008083540402835291602001916105e5565b820191906000526020600020905b8154815290600101906020018083116105c857829003601f168201915b5050505050905090565b60006105fa82611730565b610639576040517f08c379a0000000000000000000000000000000000000000000000000000000008152600401610630906130fd565b60405180910390fd5b6004600083815260200190815260200160002060009054906101000a900473ffffffffffffffffffffffffffffffffffffffff169050919050565b806009600082815260200190815260200160002060020160009054906101000a900473ffffffffffffffffffffffffffffffffffffffff1673ffffffffffffffffffffffffffffffffffffffff163373ffffffffffffffffffffffffffffffffffffffff16146106e357600080fd5b8373ffffffffffffffffffffffffffffffffffffffff16636352211e846040518263ffffffff1660e01b815260040161071c919061319d565b60206040518083038186803b15801561073457600080fd5b505afa158015610748573d6000803e3d6000fd5b505050506040513d601f19601f8201168201806040525081019061076c91906124b7565b73ffffffffffffffffffffffffffffffffffffffff163373ffffffffffffffffffffffffffffffffffffffff16146107a357600080fd5b60006009600084815260200190815260200160002090508060030154816004015410156109e25780600501600181600181540180825580915050039060005260206000209050506000816004015414156108e2578481600501826004015481548110610838577f4e487b7100000000000000000000000000000000000000000000000000000000600052603260045260246000fd5b906000526020600020906002020160000160006101000a81548173ffffffffffffffffffffffffffffffffffffffff021916908373ffffffffffffffffffffffffffffffffffffffff16021790555083816005018260040154815481106108c8577f4e487b7100000000000000000000000000000000000000000000000000000000600052603260045260246000fd5b9060005260206000209060020201600101819055506109e1565b8481600501600183600401546108f8919061328c565b8154811061092f577f4e487b7100000000000000000000000000000000000000000000000000000000600052603260045260246000fd5b906000526020600020906002020160000160006101000a81548173ffffffffffffffffffffffffffffffffffffffff021916908373ffffffffffffffffffffffffffffffffffffffff160217905550838160050160018360040154610994919061328c565b815481106109cb577f4e487b7100000000000000000000000000000000000000000000000000000000600052603260045260246000fd5b9060005260206000209060020201600101819055505b5b8060040160008154809291906109f790613441565b91905055507fe170847510da422a070c8375be73d067f20124c45d214a2895d84be669d7d7d460405160405180910390a15050505050565b6000610a3a82610ca5565b90508073ffffffffffffffffffffffffffffffffffffffff168373ffffffffffffffffffffffffffffffffffffffff161415610aab576040517f08c379a0000000000000000000000000000000000000000000000000000000008152600401610aa29061315d565b60405180910390fd5b8073ffffffffffffffffffffffffffffffffffffffff16610aca61179c565b73ffffffffffffffffffffffffffffffffffffffff161480610af95750610af881610af361179c565b611632565b5b610b38576040517f08c379a0000000000000000000000000000000000000000000000000000000008152600401610b2f9061303d565b60405180910390fd5b610b4283836117a4565b505050565b6009602052806000526040600020600091509050806000018054610b6a9061340f565b80601f0160208091040260200160405190810160405280929190818152602001828054610b969061340f565b8015610be35780601f10610bb857610100808354040283529160200191610be3565b820191906000526020600020905b815481529060010190602001808311610bc657829003601f168201915b5050505050908060010154908060020160009054906101000a900473ffffffffffffffffffffffffffffffffffffffff16908060030154908060040154905085565b610c36610c3061179c565b8261185d565b610c75576040517f08c379a0000000000000000000000000000000000000000000000000000000008152600401610c6c9061317d565b60405180910390fd5b610c8083838361193b565b505050565b610ca083838360405180602001604052806000815250611472565b505050565b6000806002600084815260200190815260200160002060009054906101000a900473ffffffffffffffffffffffffffffffffffffffff169050600073ffffffffffffffffffffffffffffffffffffffff168173ffffffffffffffffffffffffffffffffffffffff161415610d4e576040517f08c379a0000000000000000000000000000000000000000000000000000000008152600401610d459061307d565b60405180910390fd5b80915050919050565b600b60009054906101000a900473ffffffffffffffffffffffffffffffffffffffff1673ffffffffffffffffffffffffffffffffffffffff1663c3c5a547336040518263ffffffff1660e01b8152600401610db29190612e9f565b60206040518083038186803b158015610dca57600080fd5b505afa158015610dde573d6000803e3d6000fd5b505050506040513d601f19601f82011682018060405250810190610e02919061265e565b8015610e585750600a60003373ffffffffffffffffffffffffffffffffffffffff1673ffffffffffffffffffffffffffffffffffffffff16815260200190815260200160002060009054906101000a900460ff16155b1561101b576001600a60003373ffffffffffffffffffffffffffffffffffffffff1673ffffffffffffffffffffffffffffffffffffffff16815260200190815260200160002060006101000a81548160ff0219169083151502179055506000610ec16007611b97565b9050610ecd6007611ba5565b610ed73382611bbb565b6000600860003373ffffffffffffffffffffffffffffffffffffffff1673ffffffffffffffffffffffffffffffffffffffff168152602001908152602001600020905080829080600181540180825580915050600190039060005260206000200160009091909190915055610f4c8285611d89565b7f8a8b1d5f1defbbe51c053d2ff7e04ee478d5ad46d9ab99bf79c3144ac3a2cfa682604051610f7b919061319d565b60405180910390a1600060096000848152602001908152602001600020905083816000019080519060200190610fb2929190612273565b50828160010181905550338160020160006101000a81548173ffffffffffffffffffffffffffffffffffffffff021916908373ffffffffffffffffffffffffffffffffffffffff160217905550600581600301819055506000816004018190555050505061118b565b655af3107a4000341061118a5760006110346007611b97565b90506110406007611ba5565b61104a3382611bbb565b6000600860003373ffffffffffffffffffffffffffffffffffffffff1673ffffffffffffffffffffffffffffffffffffffff1681526020019081526020016000209050808290806001815401808255809150506001900390600052602060002001600090919091909150556110bf8285611d89565b7f8a8b1d5f1defbbe51c053d2ff7e04ee478d5ad46d9ab99bf79c3144ac3a2cfa6826040516110ee919061319d565b60405180910390a1600060096000848152602001908152602001600020905083816000019080519060200190611125929190612273565b50828160010181905550338160020160006101000a81548173ffffffffffffffffffffffffffffffffffffffff021916908373ffffffffffffffffffffffffffffffffffffffff16021790555060058160030181905550600081600401819055505050505b5b5050565b60008073ffffffffffffffffffffffffffffffffffffffff168273ffffffffffffffffffffffffffffffffffffffff161415611200576040517f08c379a00000000000000000000000000000000000000000000000000000000081526004016111f79061305d565b60405180910390fd5b600360008373ffffffffffffffffffffffffffffffffffffffff1673ffffffffffffffffffffffffffffffffffffffff168152602001908152602001600020549050919050565b6060600180546112569061340f565b80601f01602080910402602001604051908101604052809291908181526020018280546112829061340f565b80156112cf5780601f106112a4576101008083540402835291602001916112cf565b820191906000526020600020905b8154815290600101906020018083116112b257829003601f168201915b5050505050905090565b6112e161179c565b73ffffffffffffffffffffffffffffffffffffffff168273ffffffffffffffffffffffffffffffffffffffff16141561134f576040517f08c379a000000000000000000000000000000000000000000000000000000000815260040161134690612ffd565b60405180910390fd5b806005600061135c61179c565b73ffffffffffffffffffffffffffffffffffffffff1673ffffffffffffffffffffffffffffffffffffffff16815260200190815260200160002060008473ffffffffffffffffffffffffffffffffffffffff1673ffffffffffffffffffffffffffffffffffffffff16815260200190815260200160002060006101000a81548160ff0219169083151502179055508173ffffffffffffffffffffffffffffffffffffffff1661140961179c565b73ffffffffffffffffffffffffffffffffffffffff167f17307eab39ab6107e8899845ad3d59bd9653f200f220920489ca2b5937696c318360405161144e9190612f06565b60405180910390a35050565b73c5e9ddebb09cd64dfacab4011a0d5cedaf7c9bdb81565b61148361147d61179c565b8361185d565b6114c2576040517f08c379a00000000000000000000000000000000000000000000000000000000081526004016114b99061317d565b60405180910390fd5b6114ce84848484611dfd565b50505050565b60606114df82611730565b61151e576040517f08c379a0000000000000000000000000000000000000000000000000000000008152600401611515906130dd565b60405180910390fd5b600060066000848152602001908152602001600020805461153e9061340f565b80601f016020809104026020016040519081016040528092919081815260200182805461156a9061340f565b80156115b75780601f1061158c576101008083540402835291602001916115b7565b820191906000526020600020905b81548152906001019060200180831161159a57829003601f168201915b5050505050905060006115c8611e59565b90506000815114156115de578192505050611621565b6000825111156116135780826040516020016115fb929190612e7b565b60405160208183030381529060405292505050611621565b61161c84611e70565b925050505b919050565b60078060000154905081565b6000600560008473ffffffffffffffffffffffffffffffffffffffff1673ffffffffffffffffffffffffffffffffffffffff16815260200190815260200160002060008373ffffffffffffffffffffffffffffffffffffffff1673ffffffffffffffffffffffffffffffffffffffff16815260200190815260200160002060009054906101000a900460ff16905092915050565b60007f01ffc9a7000000000000000000000000000000000000000000000000000000007bffffffffffffffffffffffffffffffffffffffffffffffffffffffff1916827bffffffffffffffffffffffffffffffffffffffffffffffffffffffff1916149050919050565b60008073ffffffffffffffffffffffffffffffffffffffff166002600084815260200190815260200160002060009054906101000a900473ffffffffffffffffffffffffffffffffffffffff1673ffffffffffffffffffffffffffffffffffffffff1614159050919050565b600033905090565b816004600083815260200190815260200160002060006101000a81548173ffffffffffffffffffffffffffffffffffffffff021916908373ffffffffffffffffffffffffffffffffffffffff160217905550808273ffffffffffffffffffffffffffffffffffffffff1661181783610ca5565b73ffffffffffffffffffffffffffffffffffffffff167f8c5be1e5ebec7d5bd14f71427d1e84f3dd0314c0f7b2291e5b200ac8c7c3b92560405160405180910390a45050565b600061186882611730565b6118a7576040517f08c379a000000000000000000000000000000000000000000000000000000000815260040161189e9061301d565b60405180910390fd5b60006118b283610ca5565b90508073ffffffffffffffffffffffffffffffffffffffff168473ffffffffffffffffffffffffffffffffffffffff16148061192157508373ffffffffffffffffffffffffffffffffffffffff16611909846105ef565b73ffffffffffffffffffffffffffffffffffffffff16145b8061193257506119318185611632565b5b91505092915050565b8273ffffffffffffffffffffffffffffffffffffffff1661195b82610ca5565b73ffffffffffffffffffffffffffffffffffffffff16146119b1576040517f08c379a00000000000000000000000000000000000000000000000000000000081526004016119a89061311d565b60405180910390fd5b600073ffffffffffffffffffffffffffffffffffffffff168273ffffffffffffffffffffffffffffffffffffffff161415611a21576040517f08c379a0000000000000000000000000000000000000000000000000000000008152600401611a1890612fdd565b60405180910390fd5b611a2c838383611f17565b611a376000826117a4565b6001600360008573ffffffffffffffffffffffffffffffffffffffff1673ffffffffffffffffffffffffffffffffffffffff1681526020019081526020016000206000828254611a879190613313565b925050819055506001600360008473ffffffffffffffffffffffffffffffffffffffff1673ffffffffffffffffffffffffffffffffffffffff1681526020019081526020016000206000828254611ade919061328c565b92505081905550816002600083815260200190815260200160002060006101000a81548173ffffffffffffffffffffffffffffffffffffffff021916908373ffffffffffffffffffffffffffffffffffffffff160217905550808273ffffffffffffffffffffffffffffffffffffffff168473ffffffffffffffffffffffffffffffffffffffff167fddf252ad1be2c89b69c2b068fc378daa952ba7f163c4a11628f55a4df523b3ef60405160405180910390a4505050565b600081600001549050919050565b6001816000016000828254019250508190555050565b600073ffffffffffffffffffffffffffffffffffffffff168273ffffffffffffffffffffffffffffffffffffffff161415611c2b576040517f08c379a0000000000000000000000000000000000000000000000000000000008152600401611c22906130bd565b60405180910390fd5b611c3481611730565b15611c74576040517f08c379a0000000000000000000000000000000000000000000000000000000008152600401611c6b90612fbd565b60405180910390fd5b611c8060008383611f17565b6001600360008473ffffffffffffffffffffffffffffffffffffffff1673ffffffffffffffffffffffffffffffffffffffff1681526020019081526020016000206000828254611cd0919061328c565b92505081905550816002600083815260200190815260200160002060006101000a81548173ffffffffffffffffffffffffffffffffffffffff021916908373ffffffffffffffffffffffffffffffffffffffff160217905550808273ffffffffffffffffffffffffffffffffffffffff16600073ffffffffffffffffffffffffffffffffffffffff167fddf252ad1be2c89b69c2b068fc378daa952ba7f163c4a11628f55a4df523b3ef60405160405180910390a45050565b611d9282611730565b611dd1576040517f08c379a0000000000000000000000000000000000000000000000000000000008152600401611dc89061309d565b60405180910390fd5b80600660008481526020019081526020016000209080519060200190611df8929190612273565b505050565b611e0884848461193b565b611e1484848484611f1c565b611e53576040517f08c379a0000000000000000000000000000000000000000000000000000000008152600401611e4a90612f9d565b60405180910390fd5b50505050565b606060405180602001604052806000815250905090565b6060611e7b82611730565b611eba576040517f08c379a0000000000000000000000000000000000000000000000000000000008152600401611eb19061313d565b60405180910390fd5b6000611ec4611e59565b90506000815111611ee45760405180602001604052806000815250611f0f565b80611eee846120b3565b604051602001611eff929190612e7b565b6040516020818303038152906040525b915050919050565b505050565b6000611f3d8473ffffffffffffffffffffffffffffffffffffffff16612260565b156120a6578373ffffffffffffffffffffffffffffffffffffffff1663150b7a02611f6661179c565b8786866040518563ffffffff1660e01b8152600401611f889493929190612eba565b602060405180830381600087803b158015611fa257600080fd5b505af1925050508015611fd357506040513d601f19601f82011682018060405250810190611fd091906126b0565b60015b612056573d8060008114612003576040519150601f19603f3d011682016040523d82523d6000602084013e612008565b606091505b5060008151141561204e576040517f08c379a000000000000000000000000000000000000000000000000000000000815260040161204590612f9d565b60405180910390fd5b805181602001fd5b63150b7a0260e01b7bffffffffffffffffffffffffffffffffffffffffffffffffffffffff1916817bffffffffffffffffffffffffffffffffffffffffffffffffffffffff1916149150506120ab565b600190505b949350505050565b606060008214156120fb576040518060400160405280600181526020017f3000000000000000000000000000000000000000000000000000000000000000815250905061225b565b600082905060005b6000821461212d57808061211690613441565b915050600a8261212691906132e2565b9150612103565b60008167ffffffffffffffff81111561216f577f4e487b7100000000000000000000000000000000000000000000000000000000600052604160045260246000fd5b6040519080825280601f01601f1916602001820160405280156121a15781602001600182028036833780820191505090505b5090505b60008514612254576001826121ba9190613313565b9150600a856121c9919061348a565b60306121d5919061328c565b60f81b818381518110612211577f4e487b7100000000000000000000000000000000000000000000000000000000600052603260045260246000fd5b60200101907effffffffffffffffffffffffffffffffffffffffffffffffffffffffffffff1916908160001a905350600a8561224d91906132e2565b94506121a5565b8093505050505b919050565b600080823b905060008111915050919050565b82805461227f9061340f565b90600052602060002090601f0160209004810192826122a157600085556122e8565b82601f106122ba57805160ff19168380011785556122e8565b828001600101855582156122e8579182015b828111156122e75782518255916020019190600101906122cc565b5b5090506122f591906122f9565b5090565b5b808211156123125760008160009055506001016122fa565b5090565b6000612329612324846131e9565b6131b8565b90508281526020810184848401111561234157600080fd5b61234c8482856133cd565b509392505050565b600061236761236284613219565b6131b8565b90508281526020810184848401111561237f57600080fd5b61238a8482856133cd565b509392505050565b6000813590506123a181613588565b92915050565b6000815190506123b681613588565b92915050565b6000813590506123cb8161359f565b92915050565b6000815190506123e08161359f565b92915050565b6000813590506123f5816135b6565b92915050565b60008151905061240a816135b6565b92915050565b600082601f83011261242157600080fd5b8135612431848260208601612316565b91505092915050565b600081359050612449816135cd565b92915050565b600082601f83011261246057600080fd5b8135612470848260208601612354565b91505092915050565b600081359050612488816135e4565b92915050565b6000602082840312156124a057600080fd5b60006124ae84828501612392565b91505092915050565b6000602082840312156124c957600080fd5b60006124d7848285016123a7565b91505092915050565b600080604083850312156124f357600080fd5b600061250185828601612392565b925050602061251285828601612392565b9150509250929050565b60008060006060848603121561253157600080fd5b600061253f86828701612392565b935050602061255086828701612392565b925050604061256186828701612479565b9150509250925092565b6000806000806080858703121561258157600080fd5b600061258f87828801612392565b94505060206125a087828801612392565b93505060406125b187828801612479565b925050606085013567ffffffffffffffff8111156125ce57600080fd5b6125da87828801612410565b91505092959194509250565b600080604083850312156125f957600080fd5b600061260785828601612392565b9250506020612618858286016123bc565b9150509250929050565b6000806040838503121561263557600080fd5b600061264385828601612392565b925050602061265485828601612479565b9150509250929050565b60006020828403121561267057600080fd5b600061267e848285016123d1565b91505092915050565b60006020828403121561269957600080fd5b60006126a7848285016123e6565b91505092915050565b6000602082840312156126c257600080fd5b60006126d0848285016123fb565b91505092915050565b6000806000606084860312156126ee57600080fd5b60006126fc8682870161243a565b935050602061270d86828701612479565b925050604061271e86828701612479565b9150509250925092565b6000806040838503121561273b57600080fd5b600083013567ffffffffffffffff81111561275557600080fd5b6127618582860161244f565b925050602083013567ffffffffffffffff81111561277e57600080fd5b61278a8582860161244f565b9150509250929050565b6000602082840312156127a657600080fd5b60006127b484828501612479565b91505092915050565b6127c681613347565b82525050565b6127d581613359565b82525050565b60006127e682613249565b6127f0818561325f565b93506128008185602086016133dc565b61280981613577565b840191505092915050565b600061281f82613254565b6128298185613270565b93506128398185602086016133dc565b61284281613577565b840191505092915050565b600061285882613254565b6128628185613281565b93506128728185602086016133dc565b80840191505092915050565b600061288b603283613270565b91507f4552433732313a207472616e7366657220746f206e6f6e20455243373231526560008301527f63656976657220696d706c656d656e74657200000000000000000000000000006020830152604082019050919050565b60006128f1601c83613270565b91507f4552433732313a20746f6b656e20616c7265616479206d696e746564000000006000830152602082019050919050565b6000612931602483613270565b91507f4552433732313a207472616e7366657220746f20746865207a65726f2061646460008301527f72657373000000000000000000000000000000000000000000000000000000006020830152604082019050919050565b6000612997601983613270565b91507f4552433732313a20617070726f766520746f2063616c6c6572000000000000006000830152602082019050919050565b60006129d7602c83613270565b91507f4552433732313a206f70657261746f7220717565727920666f72206e6f6e657860008301527f697374656e7420746f6b656e00000000000000000000000000000000000000006020830152604082019050919050565b6000612a3d603883613270565b91507f4552433732313a20617070726f76652063616c6c6572206973206e6f74206f7760008301527f6e6572206e6f7220617070726f76656420666f7220616c6c00000000000000006020830152604082019050919050565b6000612aa3602a83613270565b91507f4552433732313a2062616c616e636520717565727920666f7220746865207a6560008301527f726f2061646472657373000000000000000000000000000000000000000000006020830152604082019050919050565b6000612b09602983613270565b91507f4552433732313a206f776e657220717565727920666f72206e6f6e657869737460008301527f656e7420746f6b656e00000000000000000000000000000000000000000000006020830152604082019050919050565b6000612b6f602e83613270565b91507f45524337323155524953746f726167653a2055524920736574206f66206e6f6e60008301527f6578697374656e7420746f6b656e0000000000000000000000000000000000006020830152604082019050919050565b6000612bd5602083613270565b91507f4552433732313a206d696e7420746f20746865207a65726f20616464726573736000830152602082019050919050565b6000612c15603183613270565b91507f45524337323155524953746f726167653a2055524920717565727920666f722060008301527f6e6f6e6578697374656e7420746f6b656e0000000000000000000000000000006020830152604082019050919050565b6000612c7b602c83613270565b91507f4552433732313a20617070726f76656420717565727920666f72206e6f6e657860008301527f697374656e7420746f6b656e00000000000000000000000000000000000000006020830152604082019050919050565b6000612ce1602983613270565b91507f4552433732313a207472616e73666572206f6620746f6b656e2074686174206960008301527f73206e6f74206f776e00000000000000000000000000000000000000000000006020830152604082019050919050565b6000612d47602f83613270565b91507f4552433732314d657461646174613a2055524920717565727920666f72206e6f60008301527f6e6578697374656e7420746f6b656e00000000000000000000000000000000006020830152604082019050919050565b6000612dad602183613270565b91507f4552433732313a20617070726f76616c20746f2063757272656e74206f776e6560008301527f72000000000000000000000000000000000000000000000000000000000000006020830152604082019050919050565b6000612e13603183613270565b91507f4552433732313a207472616e736665722063616c6c6572206973206e6f74206f60008301527f776e6572206e6f7220617070726f7665640000000000000000000000000000006020830152604082019050919050565b612e75816133c3565b82525050565b6000612e87828561284d565b9150612e93828461284d565b91508190509392505050565b6000602082019050612eb460008301846127bd565b92915050565b6000608082019050612ecf60008301876127bd565b612edc60208301866127bd565b612ee96040830185612e6c565b8181036060830152612efb81846127db565b905095945050505050565b6000602082019050612f1b60008301846127cc565b92915050565b60006020820190508181036000830152612f3b8184612814565b905092915050565b600060a0820190508181036000830152612f5d8188612814565b9050612f6c6020830187612e6c565b612f7960408301866127bd565b612f866060830185612e6c565b612f936080830184612e6c565b9695505050505050565b60006020820190508181036000830152612fb68161287e565b9050919050565b60006020820190508181036000830152612fd6816128e4565b9050919050565b60006020820190508181036000830152612ff681612924565b9050919050565b600060208201905081810360008301526130168161298a565b9050919050565b60006020820190508181036000830152613036816129ca565b9050919050565b6000602082019050818103600083015261305681612a30565b9050919050565b6000602082019050818103600083015261307681612a96565b9050919050565b6000602082019050818103600083015261309681612afc565b9050919050565b600060208201905081810360008301526130b681612b62565b9050919050565b600060208201905081810360008301526130d681612bc8565b9050919050565b600060208201905081810360008301526130f681612c08565b9050919050565b6000602082019050818103600083015261311681612c6e565b9050919050565b6000602082019050818103600083015261313681612cd4565b9050919050565b6000602082019050818103600083015261315681612d3a565b9050919050565b6000602082019050818103600083015261317681612da0565b9050919050565b6000602082019050818103600083015261319681612e06565b9050919050565b60006020820190506131b26000830184612e6c565b92915050565b6000604051905081810181811067ffffffffffffffff821117156131df576131de613548565b5b8060405250919050565b600067ffffffffffffffff82111561320457613203613548565b5b601f19601f8301169050602081019050919050565b600067ffffffffffffffff82111561323457613233613548565b5b601f19601f8301169050602081019050919050565b600081519050919050565b600081519050919050565b600082825260208201905092915050565b600082825260208201905092915050565b600081905092915050565b6000613297826133c3565b91506132a2836133c3565b9250827fffffffffffffffffffffffffffffffffffffffffffffffffffffffffffffffff038211156132d7576132d66134bb565b5b828201905092915050565b60006132ed826133c3565b91506132f8836133c3565b925082613308576133076134ea565b5b828204905092915050565b600061331e826133c3565b9150613329836133c3565b92508282101561333c5761333b6134bb565b5b828203905092915050565b6000613352826133a3565b9050919050565b60008115159050919050565b60007fffffffff0000000000000000000000000000000000000000000000000000000082169050919050565b600061339c82613347565b9050919050565b600073ffffffffffffffffffffffffffffffffffffffff82169050919050565b6000819050919050565b82818337600083830152505050565b60005b838110156133fa5780820151818401526020810190506133df565b83811115613409576000848401525b50505050565b6000600282049050600182168061342757607f821691505b6020821081141561343b5761343a613519565b5b50919050565b600061344c826133c3565b91507fffffffffffffffffffffffffffffffffffffffffffffffffffffffffffffffff82141561347f5761347e6134bb565b5b600182019050919050565b6000613495826133c3565b91506134a0836133c3565b9250826134b0576134af6134ea565b5b828206905092915050565b7f4e487b7100000000000000000000000000000000000000000000000000000000600052601160045260246000fd5b7f4e487b7100000000000000000000000000000000000000000000000000000000600052601260045260246000fd5b7f4e487b7100000000000000000000000000000000000000000000000000000000600052602260045260246000fd5b7f4e487b7100000000000000000000000000000000000000000000000000000000600052604160045260246000fd5b6000601f19601f8301169050919050565b61359181613347565b811461359c57600080fd5b50565b6135a881613359565b81146135b357600080fd5b50565b6135bf81613365565b81146135ca57600080fd5b50565b6135d681613391565b81146135e157600080fd5b50565b6135ed816133c3565b81146135f857600080fd5b5056fea2646970667358221220daf2124c839d985df7b077e46fd69ebd520d0742d85f7e16bc633efbfcf770ca64736f6c63430008000033",
  "immutableReferences": {},
  "source": "// contracts/PlanetReact.sol\n// SPDX-License-Identifier: MIT\npragma solidity ^0.8.0;\n\nimport \"./NFTplanet.sol\";\nimport \"@openzeppelin/contracts/token/ERC721/ERC721.sol\";\n\ncontract PlanetReact is NFTplanet{\n    event NFTadded();\n    event slotAdded();\n\n    modifier onlyPlanetOwner(uint256 planetId){\n        require(msg.sender==allPlanets[planetId].owner);\n        _;\n    }\n\n    /// @notice add an NFT in the planet canvas (5 available)\n    function addNFT(ERC721 nftContract, uint256 tokenId, uint256 planetId) public onlyPlanetOwner(planetId){\n        require(msg.sender==nftContract.ownerOf(tokenId));\n        Planet storage currentPlanet = allPlanets[planetId];\n        \n            if(currentPlanet.nftCounter < currentPlanet.slots ){\n                currentPlanet.allNfts.push();\n\n                if(currentPlanet.nftCounter==0){\n                        currentPlanet.allNfts[currentPlanet.nftCounter].contractAddress=address(nftContract);\n                        currentPlanet.allNfts[currentPlanet.nftCounter].id=tokenId;\n                    }\n                    else{\n                        currentPlanet.allNfts[currentPlanet.nftCounter+1].contractAddress=address(nftContract);\n                        currentPlanet.allNfts[currentPlanet.nftCounter+1].id=tokenId;\n                    }                \n                     \n            }\n               \n                currentPlanet.nftCounter++;               \n                emit NFTadded();\n    }\n\n\n    /// @notice after winning a game we have the choice to add slot +1\n    function addSlot(uint256 planetId) private{\n        Planet storage currentPlanet = allPlanets[planetId];\n        currentPlanet.allNfts.push();\n        emit slotAdded();\n\n    }\n\n    // /// @notice trasnfer planets or nft's\n    // /// @dev Explain to a developer any extra details\n    // /// @param Documents a parameter just like in doxygen (must be followed by parameter name)\n    // /// @return Documents the return variables of a contracts function state variable\n    // function transfer() {}\n\n    // function removeNFT(ERC721 nftContract, uint256 tokenId, uint256 planetId) public onlyPlanetOwner(planetId) {\n    //     Planet storage currentPlanet = allPlanets[planetId];\n    //     for (uint256 index = 0; index < currentPlanet.allNfts.length; index++) {\n    //         if(currentPlanet.allNfts[index].contractAddress == address(nftContract) && currentPlanet.allNfts[index].id == tokenId){\n    //             currentPlanet.allNfts[index].contractAddress=address(0);\n    //             break;\n    //         }\n    //     }\n    //     currentPlanet.nftCounter--;   \n    // }\n\n/*\n    /// @notice decalre a war to another user that have all of his 5 slots \n    /// @param Documents a parameter just like in doxygen (must be followed by parameter name)\n    /// @return Documents the return variables of a contracts function state variable\n    function declareWar() {}\n\n    /// @notice decline \n    /// @dev Explain to a developer any extra details\n    /// @param Documents a parameter just like in doxygen (must be followed by parameter name)\n    /// @return Documents the return variables of a contracts function state variable\n    function declineWar() {}\n\n    /// @notice accept\n    /// @param Documents a parameter just like in doxygen (must be followed by parameter name)\n    /// @return Documents the return variables of a contracts function state variable\n    function acceptWar() {}\n\n    /// @notice give the choice of add slot and make his planet bigger or have a new planet randomly created\n    /// @dev Explain to a developer any extra details\n    /// @param Documents a parameter just like in doxygen (must be followed by parameter name)\n    /// @return Documents the return variables of a contracts function state variable\n    function choice() {}\n    */\n}\n\n",
  "sourcePath": "/Users/nikitaterekhov/Projects/ETHCC/Solar-NFT/contracts/PlanetReact.sol",
  "compiler": {
    "name": "solc",
    "version": "0.8.0+commit.c7dfd78e.Emscripten.clang"
  },
  "schemaVersion": "3.4.1",
  "updatedAt": "2021-07-24T19:42:33.857Z",
  "devdoc": {
    "kind": "dev",
    "methods": {
      "approve(address,uint256)": {
        "details": "See {IERC721-approve}."
      },
      "balanceOf(address)": {
        "details": "See {IERC721-balanceOf}."
      },
      "getApproved(uint256)": {
        "details": "See {IERC721-getApproved}."
      },
      "isApprovedForAll(address,address)": {
        "details": "See {IERC721-isApprovedForAll}."
      },
      "name()": {
        "details": "See {IERC721Metadata-name}."
      },
      "ownerOf(uint256)": {
        "details": "See {IERC721-ownerOf}."
      },
      "safeTransferFrom(address,address,uint256)": {
        "details": "See {IERC721-safeTransferFrom}."
      },
      "safeTransferFrom(address,address,uint256,bytes)": {
        "details": "See {IERC721-safeTransferFrom}."
      },
      "setApprovalForAll(address,bool)": {
        "details": "See {IERC721-setApprovalForAll}."
      },
      "supportsInterface(bytes4)": {
        "details": "See {IERC165-supportsInterface}."
      },
      "symbol()": {
        "details": "See {IERC721Metadata-symbol}."
      },
      "tokenURI(uint256)": {
        "details": "See {IERC721Metadata-tokenURI}."
      },
      "transferFrom(address,address,uint256)": {
        "details": "See {IERC721-transferFrom}."
      }
    },
    "version": 1
  },
  "userdoc": {
    "kind": "user",
    "methods": {
      "addNFT(address,uint256,uint256)": {
        "notice": "add an NFT in the planet canvas (5 available)"
      }
    },
    "version": 1
  }
}